:100000000C9451010C9482010C9482010C94820195
:100010000C9482010C9482010C9482010C94820154
:100020000C9482010C9482010C9482010C94820144
:100030000C9482010C9482010C9482010C94820134
:100040000C9482010C9482010C9482010C94820124
:100050000C9482010C9482010C9482010C94A608E9
:100060000C9482010C941A090C94F0080C948201EF
:100070000C9482010C9482010C9482010C948201F4
:100080000C9482010C9482010C9482010C948201E4
:100090000C9482010C9482010C9482010C945009FE
:1000A0000C9482010C9482010C9482010C948201C4
:1000B0000C9482010C9482010C9482010C948201B4
:1000C0000C9482010C9482010C9482010C948201A4
:1000D0000C9482010C9482010C9482010C94820194
:1000E0000C9482010C940A020C945F070C948C0708
:1000F0000C94B3040C9497050C94EE010C94120527
:100100000C94CE070C94070B0C94CF010C94DA01DD
:100110000C94C5010C94A8020C94D3010C94F20128
:100120000C94E1040C94FC010C944A050C943507E2
:100130000C94E4010C94D7010C9406020C94F80181
:100140000C94CB010C94B2040C9405020C94CF07D0
:100150000C94E0010C94B4040C9404050C9400027B
:100160000C940B080C9437020C9436070C9445073A
:100170000C94F0040C9468020C94EA010C94580757
:1001800000002100240027002A002D003000330049
:1001900001010000040107010A01000022002500FE
:1001A00028002B002E003100340002010000050160
:1001B00008010B01000020002300260029002C006C
:1001C0002F003200000100000301060109010505AE
:1001D0000505070508080808020202020A0A0808BD
:1001E00004040404010101010101010103030303EB
:1001F00003030303040707070C0C0C0C0C0C0C0C7A
:100200000202020206060606060606060B0B0B0B8A
:100210000B0B0B0B010210202008081020401020AF
:1002200040800201020108040201010204081020BA
:1002300040808040201008040201800402018040B8
:100240002010080402010804020101020408102021
:100250004080010204081020408000000A0B0209BF
:100260000C0D0E0807030401000000000000000050
:10027000000000000000000000000000000000007E
:10028000000000000000121110000000000000003B
:10029000000000000000000000000000000000005E
:1002A000070B11241FBECFEFD1E2DEBFCDBF00E0B0
:1002B0000CBF15E0A0E0B2E0E2E5F2E200E00BBF27
:1002C00002C007900D92A835B107D9F727E0A8E53D
:1002D000B5E001C01D92AF35B207E1F711E0C1E50D
:1002E000D1E000E006C021970109802FFE010E94A5
:1002F000CC0FC035D10780E00807A9F70E94A60BF4
:100300000C9427110C94000096E0899FD0011124D1
:10031000A451B94F90967C936E935F9791E091961C
:100320009C939197E0915907F0915A079091580743
:10033000992339F0309751F0811108C08091080756
:100340001994309719F05C968C91FACF08958150EA
:10035000823108F05AC0E82FF0E08827ED54FE4FB4
:100360008F4F0C94CC0FD301D701C501CB01CF0126
:100370000502DA01E001E401EA01EE01F201F8010F
:10038000FC010502000206020A02809180008F77BC
:10039000809380000895809180008F7DF9CF8091B7
:1003A0008000877FF5CF84B58F7784BD089584B5AD
:1003B0008F7DFBCF8091B0008F778093B000089540
:1003C0008091B0008F7DF9CF809190008F778093DE
:1003D00090000895809190008F7DF9CF80919000DA
:1003E000877FF5CF8091A0008F778093A00008953C
:1003F0008091A0008F7DF9CF8091A000877FF5CFFD
:10040000809120018F7780932001089580912001B1
:100410008F7DF9CF80912001877FF5CFCF93DF9338
:10042000282F30E0F901E65AFD4F8491F901EC5E86
:10043000FD4FD491F901E253FE4FC491CC23A1F0BA
:1004400081110E94A701EC2FF0E0EE0FFF1FEC548A
:10045000FE4FA591B491EC91ED2381E090E009F479
:1004600080E0DF91CF91089580E090E0FACF862F71
:100470000C940E021F93CF93DF93282F30E0F901E5
:10048000E65AFD4F8491F901EC5EFD4FD491F901DC
:10049000E253FE4FC491CC23A9F0162F81110E9484
:1004A000A701EC2FF0E0EE0FFF1FE656FE4FA591DF
:1004B000B4918FB7F894EC91111108C0D095DE2358
:1004C000DC938FBFDF91CF911F910895DE2BF8CF82
:1004D000862F642F0C943A02CF93DF9390E0FC01B7
:1004E000EC5EFD4F249182539E4FFC018491882342
:1004F000C9F090E0880F991FFC01E058FE4FA591CC
:10050000B491FC01E656FE4FC591D49161110DC026
:100510009FB7F8948C91209582238C93888128230F
:1005200028839FBFDF91CF910895623051F49FB728
:10053000F8943C91822F809583238C93E8812E2B15
:10054000EFCF8FB7F894EC912E2B2C938FBFEACF7F
:10055000862F642F0C946C023FB7F8948091EF05BE
:100560009091F005A091F105B091F20526B5A89BF8
:1005700005C02F3F19F00196A11DB11D3FBFBA2F35
:10058000A92F982F8827BC01CD01620F711D811DF5
:10059000911D42E0660F771F881F991F4A95D1F77A
:1005A00008958F929F92AF92BF92CF92DF92EF9277
:1005B000FF924B015C010E94AC026B017C010E9426
:1005C000AC026C197D098E099F09683E7340810554
:1005D0009105A8F321E0821A9108A108B10888EEDC
:1005E000C80E83E0D81EE11CF11C81149104A10403
:1005F000B10429F7FF90EF90DF90CF90BF90AF90BC
:100600009F908F9008952FB7F8946091EB057091AB
:10061000EC058091ED059091EE052FBF08950F93A5
:100620001F93CF93DF93C82FD62F86E0C89FF0018A
:100630001124E451F94F11A2878D90A181309105C9
:10064000F1F058F082309105F1F1039709F440C0C0
:10065000DF91CF911F910F9108956623C9F361E057
:1006600070E08C2F0E9484010E9403036093440772
:10067000709345078093460790934707E9CF0E9400
:1006800003030091440710914507209146073091DC
:100690004707AB01BC01401B510B620B730B8091F0
:1006A000560790915707B0E0A0E084179507A6077A
:1006B000B70748F462E070E08C2FDF91CF911F9173
:1006C0000F910C94840163E070E0D111C1CFF4CF9D
:1006D00070E060E0F1CF6F927F928F929F92AF9225
:1006E000BF92CF92DF92EF92FF920F931F93CF931F
:1006F000DF9381E0809358070E940303009148072D
:100700001091490720914A0730914B07AB01BC017A
:10071000401B510B620B730B80915407909155074E
:10072000B0E0A0E084179507A607B70708F014C14A
:10073000C0E080915207C81760F4E0914E07F09135
:100740004F07EC0FF11D62E080810E946C02CF5FC9
:10075000F0CF712C812C912C5401839480915307FC
:10076000781608F05FC0072D10E0E0915007F09177
:100770005107E00FF11F61E080810E946C02E0915F
:100780005007F0915107E00FF11F60E080810E9457
:100790003A02D501C401072C04C0880F991FAA1F73
:1007A000BB1F0A94D2F76C017C01E094F094612C99
:1007B000809152076816F8F4C62DD0E0E0914E07FC
:1007C000F0914F07EC0FFD1F80810E940E022496CE
:1007D000CC0FDD1FC451D94F892B41F488819981F9
:1007E0008C299D29998388836394E2CF888199819C
:1007F0008E219F21F7CFE0915007F0915107E00F34
:10080000F11F61E080810E943A028091500790912F
:100810005107080F191F60E0F80180810E946C02E7
:1008200073949CCFCCEED6E0FE018FEF9FEF278D27
:1008300030A1232B21F4148E968F858F11A236962A
:1008400027E0E832F20799F7F12C96E0D92E809153
:100850005207F81608F050C0E12C0F2D10E0000FE1
:10086000111F0C50194F20915307E21608F042C097
:10087000F801608171810E2C02C0769567950A940B
:10088000E2F7F29E900111242E0D311DECEEF6E000
:1008900080E0458D568D2417350709F461C08F5FC0
:1008A00036968A30B1F760FF23C0ECEEF6E090E0B8
:1008B00080E0448D411117C0E0914C07F0914D0745
:1008C000E20FF31F4081D89EF001D99EF00D112454
:1008D000E451F94F448F368F258F10A2178E61E0B7
:1008E0000E940F0305C0019636968A30910509F7DC
:1008F000E394B9CFF394ABCF10E089A18111182F05
:100900002696F7E0C832DF07C1F70E940303609321
:1009100048077093490780934A0790934B07112328
:10092000D9F080910D078823B9F080910B07909141
:100930000C07019789F480910807DF91CF911F91EF
:100940000F91FF90EF90DF90CF90BF90AF909F906E
:100950008F907F906F9008951092580780E0EDCFB0
:100960006170BECF08950895AF92BF92CF92DF928B
:10097000EF92FF920F931F93CF93DF936C017B0154
:100980008B01040F151FEB015E01AE18BF08C017E5
:10099000D10759F06991D601ED91FC910190F08158
:1009A000E02DC6011995892B79F7C501DF91CF910B
:1009B0001F910F91FF90EF90DF90CF90BF90AF907D
:1009C0000895FC01538D448D252F30E0842F90E055
:1009D000821B930B541710F0CF960895019708953A
:1009E000FC01918D828D981761F0A28DAE0FBF2F03
:1009F000B11D5D968C91928D9F5F9F73928F90E059
:100A000008958FEF9FEF0895FC01918D828D9817C7
:100A100031F0828DE80FF11D858D90E008958FEF04
:100A20009FEF0895FC01918D228D892F90E0805CCD
:100A30009F4F821B91098F739927089583E496E055
:100A40000E94120521E0892B09F420E0822F0895ED
:100A5000FC01A48DA80FB92FB11DA35ABF4F2C9133
:100A6000848D90E001968F739927848FA689B7892A
:100A70002C93A089B1898C91837080648C93938D21
:100A8000848D981306C00288F389E02D80818F7DC4
:100A900080830895EF92FF920F931F93CF93DF937C
:100AA000EC0181E0888F9B8D8C8D98131AC0E889AA
:100AB000F989808185FF15C09FB7F894EE89FF8979
:100AC0006083E889F98980818370806480839FBF17
:100AD00081E090E0DF91CF911F910F91FF90EF9017
:100AE0000895F62E0B8D10E00F5F1F4F0F73112727
:100AF000E02E8C8D8E110CC00FB607FCFACFE88962
:100B0000F989808185FFF5CFCE010E942805F1CFBC
:100B1000EB8DEC0FFD2FF11DE35AFF4FF0829FB7D5
:100B2000F8940B8FEA89FB8980818062CFCFCF93C5
:100B3000DF93EC01888D8823B9F0AA89BB89E88905
:100B4000F9898C9185FD03C0808186FD0DC00FB6AB
:100B500007FCF7CF8C9185FFF2CF808185FFEDCF29
:100B6000CE010E942805E9CFDF91CF91089580E062
:100B700090E0892B29F00E941E0581110E9400003F
:100B800080E090E0892B49F080E090E0892B29F00B
:100B90000E94000081110E94000080E090E0892BFB
:100BA00049F080E090E0892B29F00E94000081113B
:100BB0000E94000080E090E0892B49F080E090E006
:100BC000892B29F00E94000081110C9400000895E7
:100BD00020919905260F3327331F21323105ECF47C
:100BE00020911906FC0190E080E0243069F082E059
:100BF0000895A09199052191AC0147585A4FA40F2F
:100C0000B52FB11D2C930196861798F38091990505
:100C1000680F6093990580E0089581E0089510922F
:100C2000190681E0809318061092F30561E084E1D3
:100C30000E943A0261E085E10E943A02E9EBF0E0AD
:100C400080818E7F808380818D7F808388E4809304
:100C5000B80085E48093BC000895CF93DF9391E0C2
:100C6000909378058823B9F0C091B800D091BA006C
:100C70008091BC008A7B8093BC0060E084E10E948C
:100C80003A0260E085E10E943A020E940F06D0938A
:100C9000BA00C093B800DF91CF910895CF92DF9250
:100CA000EF92FF920F931F93CF93DF93D091420661
:100CB00081E0D13208F09CC0C09141060E94AC0294
:100CC0006B017C018091190681116CC082E08093D8
:100CD000190681E0809318068FEF80931706109213
:100CE0001606D0931506A1E2B6E0E5EFF5E080E048
:100CF000D8138DC01092F4058091F405CC0FC82B49
:100D0000C093F4058091F305813009F084C01092FE
:100D1000F3050E94AC026B017C018091F405809385
:100D2000BB0080911B0690911C06A0911D06B091FE
:100D30001E06892B8A2B8B2BA1F00E94AC020091FE
:100D40001B0610911C0620911D0630911E066C1981
:100D50007D098E099F09061717072807390708F428
:100D600042C08091BC0083FDD8CF85EC8093BC004D
:100D70000E94AC026B017C0180911906823009F45B
:100D80004CC0809117068F3F09F469C08091170607
:100D9000803209F466C080911706803309F463C07D
:100DA00084E026C080911B0690911C06A0911D0630
:100DB000B0911E06892B8A2B8B2B09F483CF0E94BE
:100DC000AC0200911B0610911C0620911D0630916B
:100DD0001E066C197D098E099F090617170728073B
:100DE000390708F06FCF80911A060E942D0685E022
:100DF000109220061092420610921F06DF91CF91AA
:100E00001F910F91FF90EF90DF90CF9008959D91EB
:100E100091938F5F6DCF85EEA9CF80911B06909146
:100E20001C06A0911D06B0911E06892B8A2B8B2BC8
:100E300009F4A2CF0E94AC0200911B0610911C067F
:100E400020911D0630911E066C197D098E099F099F
:100E5000061717072807390708F08ECFC4CF80E0A0
:100E6000C7CF82E0C5CF83E0C3CF0895E091C1052D
:100E70008091C005E81730F4F0E0E85AFA4F80811D
:100E800090E008958FEF9FEF08959091C1058091B4
:100E9000C0052FEF3FEF981748F4E92FF0E0E85A2C
:100EA000FA4F208130E09F5F9093C105C9010895FA
:100EB0008091C0059091C105891B990B0895CF922F
:100EC000DF92EF92FF920F931F93CF93DF937C01FA
:100ED000CB018A0120911F06222389F0EB016B01CF
:100EE000C40ED51ECC15DD0569F06991D701ED91D1
:100EF000FC910190F081E02DC7011995F3CF642F8B
:100F00000E94E805C801DF91CF911F910F91FF90DA
:100F1000EF90DF90CF900895CF93DF931F92CDB7DE
:100F2000DEB7698320911F062223F9F02091420643
:100F3000203258F021E030E0FC013383228390E03E
:100F400080E00F90DF91CF91089580912006E82FE7
:100F5000F0E0EF5DF94F998190838F5F80932006D9
:100F60008093420681E090E0ECCF61E0CE010196F3
:100F70000E94E805F7CFFC01248131E030931F0681
:100F80002093410610922006109242068385682B1A
:100F900080EE96E00E948C070C944E06089590E037
:100FA00080E008950F931F93CF938C01C62F0E946A
:100FB000BB076C2F6460C8010E94BB076C2F6B7F5E
:100FC000C8010E94BB0783EC90E00197F1F7CF9135
:100FD0001F910F9108950F931F93CF93DF938C016F
:100FE000D62FC42F607F642B0E94D20780E1D89F48
:100FF000B00111246C2BC801DF91CF911F910F918B
:101000000C94D20740E061E00E94EB078BE39FE184
:101010000197F1F7089541E00E94EB0781E090E02D
:101020000895FB0101900020E9F73197AF01461BBD
:10103000570BDC01ED91FC910280F381E02D1994B6
:101040008F929F92AF92BF92EF92FF920F931F9356
:10105000CF93DF93CDB7DEB7A1970FB6F894DEBF7D
:101060000FBECDBF7C01FA01CB0119A2223008F4DA
:101070002AE08E010F5D1F4F822E912CB12CA12CE6
:10108000BF01A50194010E94AA0FF901CA016A30AB
:101090000CF5605DD8016E938D01232B242B252B3D
:1010A00079F790E080E0109721F0BD01C7010E9420
:1010B0001108A1960FB6F894DEBF0FBECDBFDF9129
:1010C000CF911F910F91FF90EF90BF90AF909F90A5
:1010D0008F900895695CDECF0C94110885ED8093A4
:1010E000BC0080911B0690911C06A0911D06B0913A
:1010F0001E060796A11DB11D23E0B695A7959795ED
:1011000087952A95D1F72091BC0024FD03C0109249
:101110001906089540911B0650911C0660911D060A
:1011200070911E06452B462B472B69F30097A105AE
:10113000B10541F02AE22A95F1F700C00197A10913
:10114000B109E1CF80911A060C942D061F920F92DF
:101150000FB60F9211242F933F938F939F93AF93CA
:10116000BF938091EB059091EC05A091ED05B091B6
:10117000EE053091EA0523E0230F2D3758F501964F
:10118000A11DB11D2093EA058093EB059093EC051A
:10119000A093ED05B093EE058091EF059091F005D9
:1011A000A091F105B091F2050196A11DB11D8093AA
:1011B000EF059093F005A093F105B093F205BF9170
:1011C000AF919F918F913F912F910F900FBE0F90F4
:1011D0001F90189526E8230F0296A11DB11DD2CFAE
:1011E0001F920F920FB60F9211240BB60F922F93EE
:1011F0003F934F935F936F937F938F939F93AF939F
:10120000BF93EF93FF9383E496E00E942805FF913C
:10121000EF91BF91AF919F918F917F916F915F916E
:101220004F913F912F910F900BBE0F900FBE0F90DB
:101230001F9018951F920F920FB60F9211240BB6A4
:101240000F922F938F939F93EF93FF93E091530609
:10125000F09154068081E0915906F0915A0682FD82
:101260001DC0908180915C068F5F8F7320915D0619
:10127000821741F0E0915C06F0E0ED5BF94F958F4D
:1012800080935C06FF91EF919F918F912F910F902A
:101290000BBE0F900FBE0F901F9018958081F2CF5C
:1012A0001F920F920FB60F9211240BB60F922F932D
:1012B0003F934F935F936F937F938F939F93AF93DE
:1012C000BF93EF93FF938091B900887F803609F434
:1012D0004DC008F040C0883209F4A9C028F580311B
:1012E00009F49DC0C8F4882309F4FBC0883009F4D0
:1012F00096C0FF91EF91BF91AF919F918F917F9198
:101300006F915F914F913F912F910F900BBE0F9076
:101310000FBE0F901F901895883109F488C0803255
:1013200041F78093170614C0803409F49DC040F43F
:101330008033B9F38833E9F68093170685ECB0C0A3
:10134000803509F485C0883509F496C0883489F65B
:101350000E946E08CECF883909F48CC038F58837E2
:1013600029F050F4883611F0803719F683E0809325
:1013700019061092BB0557C0883809F47BC0803924
:1013800019F0803809F0B5CF8091BB05803208F0A4
:1013900071C0E091BB0581E08E0F8093BB05809109
:1013A000BB00F0E0E556FA4F80833DC0803B39F04A
:1013B000E0F4803A09F479C0883A09F09ACF84E0E1
:1013C0008093190610929A0510929905E091BE0536
:1013D000F091BF0519958091990581110FC081E0A9
:1013E000809399051092790509C0803C09F4A6CF35
:1013F000883C09F4A3CF883B09F07BCFE0919A05A4
:1014000081E08E0F80939A05F0E0E758FA4F8081D3
:101410008093BB0090919A058091990529C0809195
:10142000F4058093BB0085EC8093BC0062CF909163
:10143000160680911506981758F5E091160681E07A
:101440008E0F80931606F0E0EB50FA4F8081E9CFC3
:10145000E091160681E08E0F809316068091BB0006
:10146000F0E0EB50FA4F80839091160680911506BC
:101470009817C8F285E8D8CFE091160681E08E0F64
:10148000809316068091BB00F0E0EB50FA4F80830A
:101490008091180681115CCF81E08093F30584EA86
:1014A0008093BC001092190624CF85EC8093BC0079
:1014B000109219068091BB05803230F4E091BB0593
:1014C000F0E0E556FA4F10826091BB0570E0E091C4
:1014D000BC05F091BD058BE995E019951092BB050F
:1014E00008CF1092170634CF0F931F93CF93DF933B
:1014F000162F082FEC018091E4059091E505699184
:10150000DC01ED91FC910190F081E02D19958C2F7B
:10151000801B811780F3DF91CF911F910F91089568
:10152000EF92FF920F931F93CF93DF938C017A0179
:10153000677088E0689FB0011124606440E0C801D2
:101540000E94EB07E701A8E0EA0EF11C6991D801BF
:10155000ED91FC910190F081E02DC8011995CE1517
:10156000DF05A1F7DF91CF911F910F91FF90EF90D1
:1015700008951F93CF93DF93C3EED2E08A3040F4F7
:10158000E82FF0E0EE0FFF1FE153FD4FC081D18146
:1015900010E0AE01612F8091E4059091E5050E9475
:1015A000900A1F5F28961830A1F7DF91CF911F9105
:1015B0000895CF93DF9300D000D01F921F92CDB734
:1015C000DEB728E0E7E0F2E0DE01119601900D922F
:1015D0002A95E1F7FC012085241708F44FEF50E02D
:1015E000440F551F21E030E02C0F3D1F420F531FC9
:1015F000FA012081620F606840E028960FB6F894E7
:10160000DEBF0FBECDBFDF91CF910C94EB071092E0
:1016100046061092450688EE93E0A0E0B0E0809385
:10162000470690934806A0934906B0934A0627EAD6
:1016300034E0309344062093430625EC30E03093A9
:10164000500620934F0624EC30E03093520620934E
:10165000510620EC30E0309354062093530621ECE1
:1016600030E0309356062093550622EC30E030935C
:1016700058062093570626EC30E030935A06209304
:10168000590610925C0610925D0610925E0610924A
:101690005F061092E3061092E2068093E4069093B0
:1016A000E506A093E606B093E70689EB94E09093F5
:1016B000E1068093E0061092EE061092F206109278
:1016C000F1061092F3068BEC94E09093ED06809374
:1016D000EC06E8E0F7E01082148213821582369659
:1016E00087E0E434F807B9F785ED94E090934F076D
:1016F00080934E0781ED94E09093510780935007BB
:1017000084E0809352078093530789ED94E090938F
:101710004D0780934C078AE090E0909355078093A3
:10172000540784EF91E090935707809356071092E7
:101730005A071092590710924807109249071092C1
:101740004A0710924B07109258070895CF93DF93E2
:10175000CDB7DEB7C454D1090FB6F894DEBF0FBEC3
:10176000CDBF789484B5826084BD84B5816084BD2A
:1017700085B5826085BD85B5816085BD80916E002F
:10178000816080936E001092810080918100826060
:10179000809381008091810081608093810080919D
:1017A00080008160809380008091B100846080938C
:1017B000B1008091B00081608093B0008091910071
:1017C000826080939100809191008160809391006C
:1017D000809190008160809390008091A100826050
:1017E0008093A1008091A10081608093A1008091ED
:1017F000A00081608093A00080912101826080938D
:10180000210180912101816080932101809120013B
:1018100081608093200180917A00846080937A00B7
:1018200080917A00826080937A0080917A00816052
:1018300080937A0080917A00806880937A00109279
:10184000C100E0915306F091540682E08083E0915C
:101850004F06F09150061082E0915106F091520629
:101860008FEC808310925B06E0915706F09158064A
:1018700086E08083E0915506F09156068081806174
:101880008083E0915506F0915606808188608083C0
:10189000E0915506F0915606808180688083E09142
:1018A0005506F091560680818F7D80831092C10588
:1018B0001092C00510922006109242060E940F0658
:1018C00082EB94E09093BF058093BE0583EB94E098
:1018D0009093BD058093BC0569EE74E083E496E0C7
:1018E0000E9411086DEF74E083E496E00E941108F5
:1018F000FF24F39411E010931F06F092410610921A
:101900002006109242060E944E068111D4C127E2A1
:10191000F21619F08FE3F812CEC160E075E083E4AF
:1019200096E00E946C084F2D50E070E060E020E1EE
:1019300083E496E00E9420086DEF74E083E496E073
:101940000E9411088CE090E00E9402108C01DC01E2
:1019500013961C921E92129787E293E011969C9325
:101960008E931496FC92149780E119968C93199794
:1019700082E01A968C931A971B961C921093E50599
:101980000093E4051092C1051092C0051092200644
:10199000109242060E940F0682EB94E09093BF05DE
:1019A0008093BE0583EB94E09093BD058093BC05C6
:1019B000F80115828285823010F098E09583D80175
:1019C00018968C9362E370E080E090E00E94D10270
:1019D000F8016385C8010E94BB0768EE73E080E0F0
:1019E00090E00E94D10260E3C8010E94D2074BE45C
:1019F000E42E46E4F42EC7010197F1F760E3C80135
:101A00000E94D207C7010197F1F760E3C8010E9465
:101A1000D20783E592E00197F1F760E2C8010E94E6
:101A2000D207D80115966C91606240E0C8010E940F
:101A3000EB0784E0F801868340E06CE0C8010E9477
:101A4000EB07C8010E94020882E0D80117968C9328
:101A500040E066E0C8010E94EB0740E062E0C80198
:101A60000E94EB078BE39FE10197F1F788E0F80113
:101A7000838760E0C8010E94BB070E940303609354
:101A8000E6057093E7058093E8059093E9055FE22A
:101A9000E52E53E0F52E10E0A701612F8091E405BB
:101AA0009091E5050E94900A1F5F28E0E20EF11C6C
:101AB000143091F70091E4051091E505C8010E94EA
:101AC000020840E063E0C8010E94D90A6FE175E0B6
:101AD000C8010E946C080091E4051091E50541E001
:101AE00064E0C8010E94D90A64E275E0C8010E945E
:101AF0006C080091E4051091E50540E06CE0C80138
:101B00000E94D90AD801ED91FC910190F081E02D5D
:101B100060E0C80119950091E4051091E50541E0E8
:101B20006BE0C8010E94D90AD801ED91FC910190A7
:101B3000F081E02D61E0C80119958091E405909154
:101B4000E505DC01ED91FC910190F081E02D62E072
:101B500019958091E4059091E505DC01ED91FC91EA
:101B60000190F081E02D63E0199560ED77E080E071
:101B700090E00E94D102009100028091E4059091D2
:101B8000E5050E940208802F0E94B90A82E2809F28
:101B9000F0011124E15BFC4FDE01939601900D9260
:101BA0008A95E1F740E060E08091E4059091E505D9
:101BB0000E94D90A7E01B3E2EB0EF11C69E0C70175
:101BC0000E94740A41E060E08091E4059091E5058F
:101BD0000E94D90A6BE0CE018C960E94740A69E2D9
:101BE00075E08091E4059091E5050E946C0822E281
:101BF000D22E9E2C8F2C3AE0A32EB12C0E946B0388
:101C0000882309F451C010ED180F1A3050F08134B8
:101C100009F062C0802F90E00196B5010E94960FF6
:101C2000182F011709F440C08091E4059091E50553
:101C30000E940208812F0E94B90AD19EF00111244E
:101C4000E15BFC4FDE0111968D2D01900D928A957E
:101C5000E1F7FE013196A92DB82D8D2D01900D9241
:101C60008A95E1F740E060E08091E4059091E50518
:101C70000E94D90A69E0C7010E94740A41E060E04D
:101C80008091E4059091E5050E94D90A6BE0CE01B0
:101C90008C960E94740A69E275E08091E405909147
:101CA000E5050E946C08012F64E670E080E090E09A
:101CB0000E94D102A3CFF394FFE7FF121CCE60E194
:101CC00075E083E496E00E9411086DEF74E083E410
:101CD00096E00E941108FFCF823421F4802F90E01B
:101CE00009969BCF833221F08A32F1F600910002EF
:101CF0000093000282E2809FF0011124E15BFC4F1F
:101D0000DE019396982F01900D929A95E1F7FE01CE
:101D1000B396A2ECB5E001900D928A95E1F7802F81
:101D20000E94B90A0091E4051091E505C8010E94DE
:101D3000020840E060E0C8010E94D90A6EE086ED2A
:101D400095E00E94740A0091E4051091E50541E0D8
:101D500060E0C8010E94D90A6FE275E0C8010E94E4
:101D60006C0810E0412C512C32019AE0892E912C04
:101D7000A12CB12C0E946B03082F81116AC0E09046
:101D8000E405F090E505D12C41145104610471047F
:101D900071F0A3019201CA01B901A50194010E9449
:101DA000AA0FD3942115310541055105A1F764E02F
:101DB0006D0D41E0C7010E94D90A112309F442C008
:101DC00060E475E0C7010E946C0810E080ED800FB0
:101DD0008A3080F6E0E44E16E2E45E06EFE06E063E
:101DE000710440F6AAE0B0E0A30192010E94D40F72
:101DF000E02F000FFF0BF0972F01FF0F6608770809
:101E0000460E571E681E791EE090E405F090E50529
:101E100041E064E0C7010E94D90A66E475E0C701A9
:101E20000E946C08E090E405F090E50541E064E074
:101E3000C7010E94D90A2AE0B301A201C7010E948A
:101E4000200898CF62E475E0C7010E946C0811E099
:101E5000BDCF8A3291F4E090E405F090E50541E0D1
:101E600064E0C7010E94D90A64E475E0C7010E94DA
:101E70006C08412C512C32017DCF833209F0A6CF62
:101E80006CE475E083E496E00E946C082AE0B301FC
:101E9000A20183E496E00E9420086DEF74E083E4E1
:101EA00096E00E94110888E0F82E0E946B03182F1C
:101EB000882379F00E9403036093E6057093E70599
:101EC0008093E8059093E905612F83E496E00E94F2
:101ED0004A050091E4051091E50501151105D1F0C1
:101EE0000E9403038090E6059090E705A090E80526
:101EF000B090E905681979098A099B09613177422F
:101F00008105910580F4D8011B96FC9260E0C80120
:101F10000E94BB076AE070E080E090E00E94D1027E
:101F20000E94B705C2CFF8011386F0CF97FB072EAA
:101F300016F4009407D077FD09D00E94DF0F07FC4C
:101F400005D03EF4909581959F4F089570956195C9
:101F50007F4F0895A1E21A2EAA1BBB1BFD010DC0E5
:101F6000AA1FBB1FEE1FFF1FA217B307E407F50749
:101F700020F0A21BB30BE40BF50B661F771F881F25
:101F8000991F1A9469F760957095809590959B01BB
:101F9000AC01BD01CF010895EE0FFF1F881F8BBF5D
:101FA0000790F691E02D19940E94F30FA59F900DD4
:101FB000B49F900DA49F800D911D11240895AA1B1C
:101FC000BB1B51E107C0AA1FBB1FA617B70710F024
:101FD000A61BB70B881F991F5A95A9F78095909556
:101FE000BC01CD010895A29FB001B39FC001A39F82
:101FF000700D811D1124911DB29F700D811D112442
:10200000911D08950F931F93CF93DF938230910515
:1020100010F482E090E0E0915D07F0915E0730E01F
:1020200020E0B0E0A0E0309799F42115310509F4E3
:102030004AC0281B390B24303105D8F58A819B8191
:102040006115710589F1FB0193838283FE0111C043
:10205000408151810281138148175907E0F04817E8
:10206000590799F4109761F012960C9312971396F2
:102070001C933296CF01DF91CF911F910F9108955C
:1020800000935D0710935E07F4CF2115310551F0E1
:102090004217530738F0A901DB019A01BD01DF01A6
:1020A000F801C1CFEF01F9CF90935E0780935D07F0
:1020B000CDCFFE01E20FF31F81939193225031099E
:1020C00039832883D7CF20915B0730915C07232B7E
:1020D00041F4209103023091040230935C07209375
:1020E0005B0720910102309102022115310541F474
:1020F0002DB73EB74091050250910602241B350BC7
:10210000E0915B07F0915C07E217F307A0F42E1B48
:102110003F0B2817390778F0AC014E5F5F4F24174B
:10212000350748F04E0F5F1F50935C0740935B07E5
:10213000819391939FCFF0E0E0E09CCFCF93DF932A
:102140000097E9F0FC01329713821282A0915D079B
:10215000B0915E07ED0130E020E01097A1F42081FE
:102160003181820F931F20915B0730915C07281704
:10217000390709F061C0F0935C07E0935B07DF91DA
:10218000CF910895EA01CE17DF07E8F54A815B8118
:102190009E0141155105B1F7E901FB83EA8349919D
:1021A0005991C40FD51FEC17FD0761F4808191810F
:1021B0000296840F951FE901998388838281938118
:1021C0009B838A83F0E0E0E012968D919C911397B7
:1021D0000097B9F52D913C911197CD010296820F90
:1021E000931F20915B0730915C072817390739F658
:1021F000309751F510925E0710925D07B0935C071F
:10220000A0935B07BCCFD383C28340815181840FED
:10221000951FC817D90761F44E5F5F4F8881998178
:10222000480F591F518340838A819B819383828306
:102230002115310509F0B0CFF0935E07E0935D07FB
:102240009ECFFD01DC01C0CF13821282D7CFF8945C
:02225000FFCFBE
:102252000100005F07800000004000140054000AE3
:10226200040E111010110E000A040F100E011E00B0
:102272000A041F010E101F00020A000000000000E5
:102282000A1F0A0000000000040A0000000000000B
:102292001B041B00000000000609060000000004E9
:1022A2000E040E040000000E111F110E0000001F8C
:1022B200101C101F0000001F101E101F0000001134
:1022C200111F11110000001F0404041F0000001F51
:1022D200010F110E000000111111111F000000006A
:1022E200000E111F100E010E111F110E0000001F13
:1022F200101C101F0000001F101E101F00000011F4
:10230200111F11110000001F0404041F0000001F10
:10231200010F110E000000111111111F0000008F9A
:1023220002E3024F02E302E302E302E302E302E317
:10233200020F020000000000000000000000000088
:10234200000000000000000000000000000000008B
:10235200000000000000000000000000000000007B
:10236200000000000000000000000000000000006B
:10237200000000000000000B08B404CF07CE0704E1
:10238200040E0E0E1F1F1F01020202020301001F94
:102392001F1F1F1F0F031F101818181818100050A6
:1023A2006F6C736B692020204E756D3D4A007A79FF
:1023B2006B20204F626A2E205A62696F726E696BBF
:1023C20061456E676C69736820204E756D3D4C6186
:1023D2006E672E202054616E6B20766F6C756D6572
:1023E200202020508843434B848520204E756D3D2C
:1023F200AD838E4B2020204F808DEB4D2080414BB2
:1024020041202020204465757473636820204E7536
:102412006D3D5370726163686554616E6B766F6C6B
:10242200756D656E2020204672616EE761697320CA
:102432004E756D3D4C616E67756520566F6C2E2032
:1024420072E9736572766F697245737061F16F6CD0
:1024520020204E756D3D4964696F6D6120566F6C29
:102462002E2074616E7175652020204974616C693B
:10247200616E6F204E756D3D4C696E6775612056B9
:102482006F6C2E207365726261746F696F506F7228
:1024920074756775EA734E756D3D4964696F6D6158
:1024A20020566F6C2E20646F2074616E71756554B6
:1024B200FC726BE7652020204E756D3D44696C20EF
:1024C200202020486163696D2020202020202020C8
:1024D2002000650174696E6120204E756D3D4A6170
:1024E2007A796B20204F626A656D206EE164720317
:1024F200652020000000004A05B404E1049705129B
:1025020005F0040405000000008C075F07CF0735C3
:102512000758074507360700000000A8026802377F
:10252200022C2E30322D2F313331323341343536B5
:1025320042373839432A3023445363616E6E696EE1
:102542006720493243206275732E2E2E000D0A0039
:102552004C434420666F756E6420617420307800AD
:102562004C4344206E6F7420666F756E6421004187
:1025720055544F0041515541002020232D3E003C2F
:102582002D2A205F5F5F5F5F5F5F6C20232D3E001F
:1025920020007C005F5F5F5F5F5F5F0074616E6B56
:0825A200566F6C756D653D007C
:00000001FF
