:020000040000FA
:100000000C9451010C9482010C9482010C94820195
:100010000C9482010C9482010C9482010C94820154
:100020000C9482010C9482010C9482010C94820144
:100030000C9482010C9482010C9482010C94820134
:100040000C9482010C9482010C9482010C94820124
:100050000C9482010C9482010C9482010C94A608E9
:100060000C9482010C941A090C94F0080C948201EF
:100070000C9482010C9482010C9482010C948201F4
:100080000C9482010C9482010C9482010C948201E4
:100090000C9482010C9482010C9482010C945009FE
:1000A0000C9482010C9482010C9482010C948201C4
:1000B0000C9482010C9482010C9482010C948201B4
:1000C0000C9482010C9482010C9482010C948201A4
:1000D0000C9482010C9482010C9482010C94820194
:1000E0000C9482010C940A020C945F070C948C0708
:1000F0000C94B3040C9497050C94EE010C94120527
:100100000C94CE070C94070B0C94CF010C94DA01DD
:100110000C94C5010C94A8020C94D3010C94F20128
:100120000C94E1040C94FC010C944A050C943507E2
:100130000C94E4010C94D7010C9406020C94F80181
:100140000C94CB010C94B2040C9405020C94CF07D0
:100150000C94E0010C94B4040C9404050C9400027B
:100160000C940B080C9437020C9436070C9445073A
:100170000C94F0040C9468020C94EA010C94580757
:1001800000002100240027002A002D003000330049
:1001900001010000040107010A01000022002500FE
:1001A00028002B002E003100340002010000050160
:1001B00008010B01000020002300260029002C006C
:1001C0002F003200000100000301060109010505AE
:1001D0000505070508080808020202020A0A0808BD
:1001E00004040404010101010101010103030303EB
:1001F00003030303040707070C0C0C0C0C0C0C0C7A
:100200000202020206060606060606060B0B0B0B8A
:100210000B0B0B0B010210202008081020401020AF
:1002200040800201020108040201010204081020BA
:1002300040808040201008040201800402018040B8
:100240002010080402010804020101020408102021
:100250004080010204081020408000000A0B0209BF
:100260000C0D0E0807030401000000000000000050
:10027000000000000000000000000000000000007E
:10028000000000000000121110000000000000003B
:10029000000000000000000000000000000000005E
:1002A000070B11241FBECFEFD1E2DEBFCDBF00E0B0
:1002B0000CBF15E0A0E0B2E0E2E5F2E200E00BBF27
:1002C00002C007900D92A835B107D9F727E0A8E53D
:1002D000B5E001C01D92AF35B207E1F711E0C1E50D
:1002E000D1E000E006C021970109802FFE010E94A5
:1002F000CC0FC035D10780E00807A9F70E94A60BF4
:100300000C9427110C94000096E0899FD0011124D1
:10031000A451B94F90967C936E935F9791E091961C
:100320009C939197E0915907F0915A079091580743
:10033000992339F0309751F0811108C08091080756
:100340001994309719F05C968C91FACF08958150EA
:10035000823108F05AC0E82FF0E08827ED54FE4FB4
:100360008F4F0C94CC0FD301D701C501CB01CF0126
:100370000502DA01E001E401EA01EE01F201F8010F
:10038000FC010502000206020A02809180008F77BC
:10039000809380000895809180008F7DF9CF8091B7
:1003A0008000877FF5CF84B58F7784BD089584B5AD
:1003B0008F7DFBCF8091B0008F778093B000089540
:1003C0008091B0008F7DF9CF809190008F778093DE
:1003D00090000895809190008F7DF9CF80919000DA
:1003E000877FF5CF8091A0008F778093A00008953C
:1003F0008091A0008F7DF9CF8091A000877FF5CFFD
:10040000809120018F7780932001089580912001B1
:100410008F7DF9CF80912001877FF5CFCF93DF9338
:10042000282F30E0F901E65AFD4F8491F901EC5E86
:10043000FD4FD491F901E253FE4FC491CC23A1F0BA
:1004400081110E94A701EC2FF0E0EE0FFF1FEC548A
:10045000FE4FA591B491EC91ED2381E090E009F479
:1004600080E0DF91CF91089580E090E0FACF862F71
:100470000C940E021F93CF93DF93282F30E0F901E5
:10048000E65AFD4F8491F901EC5EFD4FD491F901DC
:10049000E253FE4FC491CC23A9F0162F81110E9484
:1004A000A701EC2FF0E0EE0FFF1FE656FE4FA591DF
:1004B000B4918FB7F894EC91111108C0D095DE2358
:1004C000DC938FBFDF91CF911F910895DE2BF8CF82
:1004D000862F642F0C943A02CF93DF9390E0FC01B7
:1004E000EC5EFD4F249182539E4FFC018491882342
:1004F000C9F090E0880F991FFC01E058FE4FA591CC
:10050000B491FC01E656FE4FC591D49161110DC026
:100510009FB7F8948C91209582238C93888128230F
:1005200028839FBFDF91CF910895623051F49FB728
:10053000F8943C91822F809583238C93E8812E2B15
:10054000EFCF8FB7F894EC912E2B2C938FBFEACF7F
:10055000862F642F0C946C023FB7F8948091EF05BE
:100560009091F005A091F105B091F20526B5A89BF8
:1005700005C02F3F19F00196A11DB11D3FBFBA2F35
:10058000A92F982F8827BC01CD01620F711D811DF5
:10059000911D42E0660F771F881F991F4A95D1F77A
:1005A00008958F929F92AF92BF92CF92DF92EF9277
:1005B000FF924B015C010E94AC026B017C010E9426
:1005C000AC026C197D098E099F09683E7340810554
:1005D0009105A8F321E0821A9108A108B10888EEDC
:1005E000C80E83E0D81EE11CF11C81149104A10403
:1005F000B10429F7FF90EF90DF90CF90BF90AF90BC
:100600009F908F9008952FB7F8946091EB057091AB
:10061000EC058091ED059091EE052FBF08950F93A5
:100620001F93CF93DF93C82FD62F86E0C89FF0018A
:100630001124E451F94F11A2878D90A181309105C9
:10064000F1F058F082309105F1F1039709F440C0C0
:10065000DF91CF911F910F9108956623C9F361E057
:1006600070E08C2F0E9484010E9403036093440772
:10067000709345078093460790934707E9CF0E9400
:1006800003030091440710914507209146073091DC
:100690004707AB01BC01401B510B620B730B8091F0
:1006A000560790915707B0E0A0E084179507A6077A
:1006B000B70748F462E070E08C2FDF91CF911F9173
:1006C0000F910C94840163E070E0D111C1CFF4CF9D
:1006D00070E060E0F1CF6F927F928F929F92AF9225
:1006E000BF92CF92DF92EF92FF920F931F93CF931F
:1006F000DF9381E0809358070E940303009148072D
:100700001091490720914A0730914B07AB01BC017A
:10071000401B510B620B730B80915407909155074E
:10072000B0E0A0E084179507A607B70708F014C14A
:10073000C0E080915207C81760F4E0914E07F09135
:100740004F07EC0FF11D62E080810E946C02CF5FC9
:10075000F0CF712C812C912C5401839480915307FC
:10076000781608F05FC0072D10E0E0915007F09177
:100770005107E00FF11F61E080810E946C02E0915F
:100780005007F0915107E00FF11F60E080810E9457
:100790003A02D501C401072C04C0880F991FAA1F73
:1007A000BB1F0A94D2F76C017C01E094F094612C99
:1007B000809152076816F8F4C62DD0E0E0914E07FC
:1007C000F0914F07EC0FFD1F80810E940E022496CE
:1007D000CC0FDD1FC451D94F892B41F488819981F9
:1007E0008C299D29998388836394E2CF888199819C
:1007F0008E219F21F7CFE0915007F0915107E00F34
:10080000F11F61E080810E943A028091500790912F
:100810005107080F191F60E0F80180810E946C02E7
:1008200073949CCFCCEED6E0FE018FEF9FEF278D27
:1008300030A1232B21F4148E968F858F11A236962A
:1008400027E0E832F20799F7F12C96E0D92E809153
:100850005207F81608F050C0E12C0F2D10E0000FE1
:10086000111F0C50194F20915307E21608F042C097
:10087000F801608171810E2C02C0769567950A940B
:10088000E2F7F29E900111242E0D311DECEEF6E000
:1008900080E0458D568D2417350709F461C08F5FC0
:1008A00036968A30B1F760FF23C0ECEEF6E090E0B8
:1008B00080E0448D411117C0E0914C07F0914D0745
:1008C000E20FF31F4081D89EF001D99EF00D112454
:1008D000E451F94F448F368F258F10A2178E61E0B7
:1008E0000E940F0305C0019636968A30910509F7DC
:1008F000E394B9CFF394ABCF10E089A18111182F05
:100900002696F7E0C832DF07C1F70E940303609321
:1009100048077093490780934A0790934B07112328
:10092000D9F080910D078823B9F080910B07909141
:100930000C07019789F480910807DF91CF911F91EF
:100940000F91FF90EF90DF90CF90BF90AF909F906E
:100950008F907F906F9008951092580780E0EDCFB0
:100960006170BECF08950895AF92BF92CF92DF928B
:10097000EF92FF920F931F93CF93DF936C017B0154
:100980008B01040F151FEB015E01AE18BF08C017E5
:10099000D10759F06991D601ED91FC910190F08158
:1009A000E02DC6011995892B79F7C501DF91CF910B
:1009B0001F910F91FF90EF90DF90CF90BF90AF907D
:1009C0000895FC01538D448D252F30E0842F90E055
:1009D000821B930B541710F0CF960895019708953A
:1009E000FC01918D828D981761F0A28DAE0FBF2F03
:1009F000B11D5D968C91928D9F5F9F73928F90E059
:100A000008958FEF9FEF0895FC01918D828D9817C7
:100A100031F0828DE80FF11D858D90E008958FEF04
:100A20009FEF0895FC01918D228D892F90E0805CCD
:100A30009F4F821B91098F739927089583E496E055
:100A40000E94120521E0892B09F420E0822F0895ED
:100A5000FC01A48DA80FB92FB11DA35ABF4F2C9133
:100A6000848D90E001968F739927848FA689B7892A
:100A70002C93A089B1898C91837080648C93938D21
:100A8000848D981306C00288F389E02D80818F7DC4
:100A900080830895EF92FF920F931F93CF93DF937C
:100AA000EC0181E0888F9B8D8C8D98131AC0E889AA
:100AB000F989808185FF15C09FB7F894EE89FF8979
:100AC0006083E889F98980818370806480839FBF17
:100AD00081E090E0DF91CF911F910F91FF90EF9017
:100AE0000895F62E0B8D10E00F5F1F4F0F73112727
:100AF000E02E8C8D8E110CC00FB607FCFACFE88962
:100B0000F989808185FFF5CFCE010E942805F1CFBC
:100B1000EB8DEC0FFD2FF11DE35AFF4FF0829FB7D5
:100B2000F8940B8FEA89FB8980818062CFCFCF93C5
:100B3000DF93EC01888D8823B9F0AA89BB89E88905
:100B4000F9898C9185FD03C0808186FD0DC00FB6AB
:100B500007FCF7CF8C9185FFF2CF808185FFEDCF29
:100B6000CE010E942805E9CFDF91CF91089580E062
:100B700090E0892B29F00E941E0581110E9400003F
:100B800080E090E0892B49F080E090E0892B29F00B
:100B90000E94000081110E94000080E090E0892BFB
:100BA00049F080E090E0892B29F00E94000081113B
:100BB0000E94000080E090E0892B49F080E090E006
:100BC000892B29F00E94000081110C9400000895E7
:100BD00020919905260F3327331F21323105ECF47C
:100BE00020911906FC0190E080E0243069F082E059
:100BF0000895A09199052191AC0147585A4FA40F2F
:100C0000B52FB11D2C930196861798F38091990505
:100C1000680F6093990580E0089581E0089510922F
:100C2000190681E0809318061092F30561E084E1D3
:100C30000E943A0261E085E10E943A02E9EBF0E0AD
:100C400080818E7F808380818D7F808388E4809304
:100C5000B80085E48093BC000895CF93DF9391E0C2
:100C6000909378058823B9F0C091B800D091BA006C
:100C70008091BC008A7B8093BC0060E084E10E948C
:100C80003A0260E085E10E943A020E940F06D0938A
:100C9000BA00C093B800DF91CF910895CF92DF9250
:100CA000EF92FF920F931F93CF93DF93D091420661
:100CB00081E0D13208F09CC0C09141060E94AC0294
:100CC0006B017C018091190681116CC082E08093D8
:100CD000190681E0809318068FEF80931706109213
:100CE0001606D0931506A1E2B6E0E5EFF5E080E048
:100CF000D8138DC01092F4058091F405CC0FC82B49
:100D0000C093F4058091F305813009F084C01092FE
:100D1000F3050E94AC026B017C018091F405809385
:100D2000BB0080911B0690911C06A0911D06B091FE
:100D30001E06892B8A2B8B2BA1F00E94AC020091FE
:100D40001B0610911C0620911D0630911E066C1981
:100D50007D098E099F09061717072807390708F428
:100D600042C08091BC0083FDD8CF85EC8093BC004D
:100D70000E94AC026B017C0180911906823009F45B
:100D80004CC0809117068F3F09F469C08091170607
:100D9000803209F466C080911706803309F463C07D
:100DA00084E026C080911B0690911C06A0911D0630
:100DB000B0911E06892B8A2B8B2B09F483CF0E94BE
:100DC000AC0200911B0610911C0620911D0630916B
:100DD0001E066C197D098E099F090617170728073B
:100DE000390708F06FCF80911A060E942D0685E022
:100DF000109220061092420610921F06DF91CF91AA
:100E00001F910F91FF90EF90DF90CF9008959D91EB
:100E100091938F5F6DCF85EEA9CF80911B06909146
:100E20001C06A0911D06B0911E06892B8A2B8B2BC8
:100E300009F4A2CF0E94AC0200911B0610911C067F
:100E400020911D0630911E066C197D098E099F099F
:100E5000061717072807390708F08ECFC4CF80E0A0
:100E6000C7CF82E0C5CF83E0C3CF0895E091C1052D
:100E70008091C005E81730F4F0E0E85AFA4F80811D
:100E800090E008958FEF9FEF08959091C1058091B4
:100E9000C0052FEF3FEF981748F4E92FF0E0E85A2C
:100EA000FA4F208130E09F5F9093C105C9010895FA
:100EB0008091C0059091C105891B990B0895CF922F
:100EC000DF92EF92FF920F931F93CF93DF937C01FA
:100ED000CB018A0120911F06222389F0EB016B01CF
:100EE000C40ED51ECC15DD0569F06991D701ED91D1
:100EF000FC910190F081E02DC7011995F3CF642F8B
:100F00000E94E805C801DF91CF911F910F91FF90DA
:100F1000EF90DF90CF900895CF93DF931F92CDB7DE
:100F2000DEB7698320911F062223F9F02091420643
:100F3000203258F021E030E0FC013383228390E03E
:100F400080E00F90DF91CF91089580912006E82FE7
:100F5000F0E0EF5DF94F998190838F5F80932006D9
:100F60008093420681E090E0ECCF61E0CE010196F3
:100F70000E94E805F7CFFC01248131E030931F0681
:100F80002093410610922006109242068385682B1A
:100F900080EE96E00E948C070C944E06089590E037
:100FA00080E008950F931F93CF938C01C62F0E946A
:100FB000BB076C2F6460C8010E94BB076C2F6B7F5E
:100FC000C8010E94BB0783EC90E00197F1F7CF9135
:100FD0001F910F9108950F931F93CF93DF938C016F
:100FE000D62FC42F607F642B0E94D20780E1D89F48
:100FF000B00111246C2BC801DF91CF911F910F918B
:101000000C94D20740E061E00E94EB078BE39FE184
:101010000197F1F7089541E00E94EB0781E090E02D
:101020000895FB0101900020E9F73197AF01461BBD
:10103000570BDC01ED91FC910280F381E02D1994B6
:101040008F929F92AF92BF92EF92FF920F931F9356
:10105000CF93DF93CDB7DEB7A1970FB6F894DEBF7D
:101060000FBECDBF7C01FA01CB0119A2223008F4DA
:101070002AE08E010F5D1F4F822E912CB12CA12CE6
:10108000BF01A50194010E94AA0FF901CA016A30AB
:101090000CF5605DD8016E938D01232B242B252B3D
:1010A00079F790E080E0109721F0BD01C7010E9420
:1010B0001108A1960FB6F894DEBF0FBECDBFDF9129
:1010C000CF911F910F91FF90EF90BF90AF909F90A5
:1010D0008F900895695CDECF0C94110885ED8093A4
:1010E000BC0080911B0690911C06A0911D06B0913A
:1010F0001E060796A11DB11D23E0B695A7959795ED
:1011000087952A95D1F72091BC0024FD03C0109249
:101110001906089540911B0650911C0660911D060A
:1011200070911E06452B462B472B69F30097A105AE
:10113000B10541F02AE22A95F1F700C00197A10913
:10114000B109E1CF80911A060C942D061F920F92DF
:101150000FB60F9211242F933F938F939F93AF93CA
:10116000BF938091EB059091EC05A091ED05B091B6
:10117000EE053091EA0523E0230F2D3758F501964F
:10118000A11DB11D2093EA058093EB059093EC051A
:10119000A093ED05B093EE058091EF059091F005D9
:1011A000A091F105B091F2050196A11DB11D8093AA
:1011B000EF059093F005A093F105B093F205BF9170
:1011C000AF919F918F913F912F910F900FBE0F90F4
:1011D0001F90189526E8230F0296A11DB11DD2CFAE
:1011E0001F920F920FB60F9211240BB60F922F93EE
:1011F0003F934F935F936F937F938F939F93AF939F
:10120000BF93EF93FF9383E496E00E942805FF913C
:10121000EF91BF91AF919F918F917F916F915F916E
:101220004F913F912F910F900BBE0F900FBE0F90DB
:101230001F9018951F920F920FB60F9211240BB6A4
:101240000F922F938F939F93EF93FF93E091530609
:10125000F09154068081E0915906F0915A0682FD82
:101260001DC0908180915C068F5F8F7320915D0619
:10127000821741F0E0915C06F0E0ED5BF94F958F4D
:1012800080935C06FF91EF919F918F912F910F902A
:101290000BBE0F900FBE0F901F9018958081F2CF5C
:1012A0001F920F920FB60F9211240BB60F922F932D
:1012B0003F934F935F936F937F938F939F93AF93DE
:1012C000BF93EF93FF938091B900887F803609F434
:1012D0004DC008F040C0883209F4A9C028F580311B
:1012E00009F49DC0C8F4882309F4FBC0883009F4D0
:1012F00096C0FF91EF91BF91AF919F918F917F9198
:101300006F915F914F913F912F910F900BBE0F9076
:101310000FBE0F901F901895883109F488C0803255
:1013200041F78093170614C0803409F49DC040F43F
:101330008033B9F38833E9F68093170685ECB0C0A3
:10134000803509F485C0883509F496C0883489F65B
:101350000E946E08CECF883909F48CC038F58837E2
:1013600029F050F4883611F0803719F683E0809325
:1013700019061092BB0557C0883809F47BC0803924
:1013800019F0803809F0B5CF8091BB05803208F0A4
:1013900071C0E091BB0581E08E0F8093BB05809109
:1013A000BB00F0E0E556FA4F80833DC0803B39F04A
:1013B000E0F4803A09F479C0883A09F09ACF84E0E1
:1013C0008093190610929A0510929905E091BE0536
:1013D000F091BF0519958091990581110FC081E0A9
:1013E000809399051092790509C0803C09F4A6CF35
:1013F000883C09F4A3CF883B09F07BCFE0919A05A4
:1014000081E08E0F80939A05F0E0E758FA4F8081D3
:101410008093BB0090919A058091990529C0809195
:10142000F4058093BB0085EC8093BC0062CF909163
:10143000160680911506981758F5E091160681E07A
:101440008E0F80931606F0E0EB50FA4F8081E9CFC3
:10145000E091160681E08E0F809316068091BB0006
:10146000F0E0EB50FA4F80839091160680911506BC
:101470009817C8F285E8D8CFE091160681E08E0F64
:10148000809316068091BB00F0E0EB50FA4F80830A
:101490008091180681115CCF81E08093F30584EA86
:1014A0008093BC001092190624CF85EC8093BC0079
:1014B000109219068091BB05803230F4E091BB0593
:1014C000F0E0E556FA4F10826091BB0570E0E091C4
:1014D000BC05F091BD058BE995E019951092BB050F
:1014E00008CF1092170634CF0F931F93CF93DF933B
:1014F000162F082FEC018091E4059091E505699184
:10150000DC01ED91FC910190F081E02D19958C2F7B
:10151000801B811780F3DF91CF911F910F91089568
:10152000EF92FF920F931F93CF93DF938C017A0179
:10153000677088E0689FB0011124606440E0C801D2
:101540000E94EB07E701A8E0EA0EF11C6991D801BF
:10155000ED91FC910190F081E02DC8011995CE1517
:10156000DF05A1F7DF91CF911F910F91FF90EF90D1
:1015700008951F93CF93DF93C3EED2E08A3040F4F7
:10158000E82FF0E0EE0FFF1FE153FD4FC081D18146
:1015900010E0AE01612F8091E4059091E5050E9475
:1015A000900A1F5F28961830A1F7DF91CF911F9105
:1015B0000895CF93DF9300D000D01F921F92CDB734
:1015C000DEB728E0E7E0F2E0DE01119601900D922F
:1015D0002A95E1F7FC012085241708F44FEF50E02D
:1015E000440F551F21E030E02C0F3D1F420F531FC9
:1015F000FA012081620F606840E028960FB6F894E7
:10160000DEBF0FBECDBFDF91CF910C94EB071092E0
:1016100046061092450688EE93E0A0E0B0E0809385
:10162000470690934806A0934906B0934A0627EAD6
:1016300034E0309344062093430625EC30E03093A9
:10164000500620934F0624EC30E03093520620934E
:10165000510620EC30E0309354062093530621ECE1
:1016600030E0309356062093550622EC30E030935C
:1016700058062093570626EC30E030935A06209304
:10168000590610925C0610925D0610925E0610924A
:101690005F061092E3061092E2068093E4069093B0
:1016A000E506A093E606B093E70689EB94E09093F5
:1016B000E1068093E0061092EE061092F206109278
:1016C000F1061092F3068BEC94E09093ED06809374
:1016D000EC06E8E0F7E01082148213821582369659
:1016E00087E0E434F807B9F785ED94E090934F076D
:1016F00080934E0781ED94E09093510780935007BB
:1017000084E0809352078093530789ED94E090938F
:101710004D0780934C078AE090E0909355078093A3
:10172000540784EF91E090935707809356071092E7
:101730005A071092590710924807109249071092C1
:101740004A0710924B07109258070895CF93DF93E2
:10175000CDB7DEB7C454D1090FB6F894DEBF0FBEC3
:10176000CDBF789484B5826084BD84B5816084BD2A
:1017700085B5826085BD85B5816085BD80916E002F
:10178000816080936E001092810080918100826060
:10179000809381008091810081608093810080919D
:1017A00080008160809380008091B100846080938C
:1017B000B1008091B00081608093B0008091910071
:1017C000826080939100809191008160809391006C
:1017D000809190008160809390008091A100826050
:1017E0008093A1008091A10081608093A1008091ED
:1017F000A00081608093A00080912101826080938D
:10180000210180912101816080932101809120013B
:1018100081608093200180917A00846080937A00B7
:1018200080917A00826080937A0080917A00816052
:1018300080937A0080917A00806880937A00109279
:10184000C100E0915306F091540682E08083E0915C
:101850004F06F09150061082E0915106F091520629
:101860008FEC808310925B06E0915706F09158064A
:1018700086E08083E0915506F09156068081806174
:101880008083E0915506F0915606808188608083C0
:10189000E0915506F0915606808180688083E09142
:1018A0005506F091560680818F7D80831092C10588
:1018B0001092C00510922006109242060E940F0658
:1018C00082EB94E09093BF058093BE0583EB94E098
:1018D0009093BD058093BC0569EE74E083E496E0C7
:1018E0000E9411086DEF74E083E496E00E941108F5
:1018F000FF24F39411E010931F06F092410610921A
:101900002006109242060E944E068111D4C127E2A1
:10191000F21619F08FE3F812CEC160E075E083E4AF
:1019200096E00E946C084F2D50E070E060E020E1EE
:1019300083E496E00E9420086DEF74E083E496E073
:101940000E9411088CE090E00E9402108C01DC01E2
:1019500013961C921E92129787E293E011969C9325
:101960008E931496FC92149780E119968C93199794
:1019700082E01A968C931A971B961C921093E50599
:101980000093E4051092C1051092C0051092200644
:10199000109242060E940F0682EB94E09093BF05DE
:1019A0008093BE0583EB94E09093BD058093BC05C6
:1019B000F80115828285823010F098E09583D80175
:1019C00018968C9362E370E080E090E00E94D10270
:1019D000F8016385C8010E94BB0768EE73E080E0F0
:1019E00090E00E94D10260E3C8010E94D2074BE45C
:1019F000E42E46E4F42EC7010197F1F760E3C80135
:101A00000E94D207C7010197F1F760E3C8010E9465
:101A1000D20783E592E00197F1F760E2C8010E94E6
:101A2000D207D80115966C91606240E0C8010E940F
:101A3000EB0784E0F801868340E06CE0C8010E9477
:101A4000EB07C8010E94020882E0D80117968C9328
:101A500040E066E0C8010E94EB0740E062E0C80198
:101A60000E94EB078BE39FE10197F1F788E0F80113
:101A7000838760E0C8010E94BB070E940303609354
:101A8000E6057093E7058093E8059093E9055FE22A
:101A9000E52E53E0F52E10E0A701612F8091E405BB
:101AA0009091E5050E94900A1F5F28E0E20EF11C6C
:101AB000143091F70091E4051091E505C8010E94EA
:101AC000020840E063E0C8010E94D90A6FE175E0B6
:101AD000C8010E946C080091E4051091E50541E001
:101AE00064E0C8010E94D90A64E275E0C8010E945E
:101AF0006C080091E4051091E50540E06CE0C80138
:101B00000E94D90AD801ED91FC910190F081E02D5D
:101B100060E0C80119950091E4051091E50541E0E8
:101B20006BE0C8010E94D90AD801ED91FC910190A7
:101B3000F081E02D61E0C80119958091E405909154
:101B4000E505DC01ED91FC910190F081E02D62E072
:101B500019958091E4059091E505DC01ED91FC91EA
:101B60000190F081E02D63E0199560ED77E080E071
:101B700090E00E94D102009100028091E4059091D2
:101B8000E5050E940208802F0E94B90A82E2809F28
:101B9000F0011124E15BFC4FDE01939601900D9260
:101BA0008A95E1F740E060E08091E4059091E505D9
:101BB0000E94D90A7E01B3E2EB0EF11C69E0C70175
:101BC0000E94740A41E060E08091E4059091E5058F
:101BD0000E94D90A6BE0CE018C960E94740A69E2D9
:101BE00075E08091E4059091E5050E946C0822E281
:101BF000D22E9E2C8F2C3AE0A32EB12C0E946B0388
:101C0000882309F451C010ED180F1A3050F08134B8
:101C100009F062C0802F90E00196B5010E94960FF6
:101C2000182F011709F440C08091E4059091E50553
:101C30000E940208812F0E94B90AD19EF00111244E
:101C4000E15BFC4FDE0111968D2D01900D928A957E
:101C5000E1F7FE013196A92DB82D8D2D01900D9241
:101C60008A95E1F740E060E08091E4059091E50518
:101C70000E94D90A69E0C7010E94740A41E060E04D
:101C80008091E4059091E5050E94D90A6BE0CE01B0
:101C90008C960E94740A69E275E08091E405909147
:101CA000E5050E946C08012F64E670E080E090E09A
:101CB0000E94D102A3CFF394FFE7FF121CCE60E194
:101CC00075E083E496E00E9411086DEF74E083E410
:101CD00096E00E941108FFCF823421F4802F90E01B
:101CE00009969BCF833221F08A32F1F600910002EF
:101CF0000093000282E2809FF0011124E15BFC4F1F
:101D0000DE019396982F01900D929A95E1F7FE01CE
:101D1000B396A2ECB5E001900D928A95E1F7802F81
:101D20000E94B90A0091E4051091E505C8010E94DE
:101D3000020840E060E0C8010E94D90A6EE086ED2A
:101D400095E00E94740A0091E4051091E50541E0D8
:101D500060E0C8010E94D90A6FE275E0C8010E94E4
:101D60006C0810E0412C512C32019AE0892E912C04
:101D7000A12CB12C0E946B03082F81116AC0E09046
:101D8000E405F090E505D12C41145104610471047F
:101D900071F0A3019201CA01B901A50194010E9449
:101DA000AA0FD3942115310541055105A1F764E02F
:101DB0006D0D41E0C7010E94D90A112309F442C008
:101DC00060E475E0C7010E946C0810E080ED800FB0
:101DD0008A3080F6E0E44E16E2E45E06EFE06E063E
:101DE000710440F6AAE0B0E0A30192010E94D40F72
:101DF000E02F000FFF0BF0972F01FF0F6608770809
:101E0000460E571E681E791EE090E405F090E50529
:101E100041E064E0C7010E94D90A66E475E0C701A9
:101E20000E946C08E090E405F090E50541E064E074
:101E3000C7010E94D90A2AE0B301A201C7010E948A
:101E4000200898CF62E475E0C7010E946C0811E099
:101E5000BDCF8A3291F4E090E405F090E50541E0D1
:101E600064E0C7010E94D90A64E475E0C7010E94DA
:101E70006C08412C512C32017DCF833209F0A6CF62
:101E80006CE475E083E496E00E946C082AE0B301FC
:101E9000A20183E496E00E9420086DEF74E083E4E1
:101EA00096E00E94110888E0F82E0E946B03182F1C
:101EB000882379F00E9403036093E6057093E70599
:101EC0008093E8059093E905612F83E496E00E94F2
:101ED0004A050091E4051091E50501151105D1F0C1
:101EE0000E9403038090E6059090E705A090E80526
:101EF000B090E905681979098A099B09613177422F
:101F00008105910580F4D8011B96FC9260E0C80120
:101F10000E94BB076AE070E080E090E00E94D1027E
:101F20000E94B705C2CFF8011386F0CF97FB072EAA
:101F300016F4009407D077FD09D00E94DF0F07FC4C
:101F400005D03EF4909581959F4F089570956195C9
:101F50007F4F0895A1E21A2EAA1BBB1BFD010DC0E5
:101F6000AA1FBB1FEE1FFF1FA217B307E407F50749
:101F700020F0A21BB30BE40BF50B661F771F881F25
:101F8000991F1A9469F760957095809590959B01BB
:101F9000AC01BD01CF010895EE0FFF1F881F8BBF5D
:101FA0000790F691E02D19940E94F30FA59F900DD4
:101FB000B49F900DA49F800D911D11240895AA1B1C
:101FC000BB1B51E107C0AA1FBB1FA617B70710F024
:101FD000A61BB70B881F991F5A95A9F78095909556
:101FE000BC01CD010895A29FB001B39FC001A39F82
:101FF000700D811D1124911DB29F700D811D112442
:10200000911D08950F931F93CF93DF938230910515
:1020100010F482E090E0E0915D07F0915E0730E01F
:1020200020E0B0E0A0E0309799F42115310509F4E3
:102030004AC0281B390B24303105D8F58A819B8191
:102040006115710589F1FB0193838283FE0111C043
:10205000408151810281138148175907E0F04817E8
:10206000590799F4109761F012960C9312971396F2
:102070001C933296CF01DF91CF911F910F9108955C
:1020800000935D0710935E07F4CF2115310551F0E1
:102090004217530738F0A901DB019A01BD01DF01A6
:1020A000F801C1CFEF01F9CF90935E0780935D07F0
:1020B000CDCFFE01E20FF31F81939193225031099E
:1020C00039832883D7CF20915B0730915C07232B7E
:1020D00041F4209103023091040230935C07209375
:1020E0005B0720910102309102022115310541F474
:1020F0002DB73EB74091050250910602241B350BC7
:10210000E0915B07F0915C07E217F307A0F42E1B48
:102110003F0B2817390778F0AC014E5F5F4F24174B
:10212000350748F04E0F5F1F50935C0740935B07E5
:10213000819391939FCFF0E0E0E09CCFCF93DF932A
:102140000097E9F0FC01329713821282A0915D079B
:10215000B0915E07ED0130E020E01097A1F42081FE
:102160003181820F931F20915B0730915C07281704
:10217000390709F061C0F0935C07E0935B07DF91DA
:10218000CF910895EA01CE17DF07E8F54A815B8118
:102190009E0141155105B1F7E901FB83EA8349919D
:1021A0005991C40FD51FEC17FD0761F4808191810F
:1021B0000296840F951FE901998388838281938118
:1021C0009B838A83F0E0E0E012968D919C911397B7
:1021D0000097B9F52D913C911197CD010296820F90
:1021E000931F20915B0730915C072817390739F658
:1021F000309751F510925E0710925D07B0935C071F
:10220000A0935B07BCCFD383C28340815181840FED
:10221000951FC817D90761F44E5F5F4F8881998178
:10222000480F591F518340838A819B819383828306
:102230002115310509F0B0CFF0935E07E0935D07FB
:102240009ECFFD01DC01C0CF13821282D7CFF8945C
:10225000FFCF0100005F0780000000400014005421
:10226000000A040E111010110E000A040F100E01C6
:102270001E000A041F010E101F00020A00000000C9
:1022800000000A1F0A0000000000040A000000000D
:1022900000001B041B0000000000060906000000EF
:1022A00000040E040E040000000E111F110E0000A9
:1022B000001F101C101F0000001F101E101F000028
:1022C0000011111F11110000001F0404041F000061
:1022D000001F010F110E000000111111111F00004D
:1022E0000000000E111F100E010E111F110E000034
:1022F000001F101C101F0000001F101E101F0000E8
:102300000011111F11110000001F0404041F000020
:10231000001F010F110E000000111111111F00000C
:10232000008F02E3024F02E302E302E302E302E36F
:1023300002E3020F020000000000000000000000A5
:10234000000000000000000000000000000000008D
:10235000000000000000000000000000000000007D
:10236000000000000000000000000000000000006D
:102370000000000000000000000B08B404CF07CEEE
:102380000704040E0E0E1F1F1F01020202020301AA
:10239000001F1F1F1F1F0F031F10181818181810D9
:1023A00000506F6C736B692020204E756D3D4A00A4
:1023B0007A796B20204F626A2E205A62696F726EA2
:1023C000696B61456E676C69736820204E756D3D61
:1023D0004C616E672E202054616E6B20766F6C7599
:1023E0006D65202020508843434B848520204E7506
:1023F0006D3DAD838E4B2020204F808DEB4D208096
:10240000414B41202020204465757473636820206F
:102410004E756D3D5370726163686554616E6B7685
:102420006F6C756D656E2020204672616EE7616984
:1024300073204E756D3D4C616E67756520566F6CEF
:102440002E2072E9736572766F697245737061F15F
:102450006F6C20204E756D3D4964696F6D6120562B
:102460006F6C2E2074616E71756520202049746137
:102470006C69616E6F204E756D3D4C696E6775615C
:1024800020566F6C2E207365726261746F696F5095
:102490006F7274756775EA734E756D3D4964696F47
:1024A0006D6120566F6C2E20646F2074616E7175A3
:1024B0006554FC726BE7652020204E756D3D4469C4
:1024C0006C20202020486163696D2020202020207E
:1024D00020202000650174696E6120204E756D3DDD
:1024E0004A617A796B20204F626A656D206EE164E3
:1024F0007203652020000000004A05B404E104973F
:10250000051205F0040405000000008C075F07CFEA
:1025100007350758074507360700000000A802687E
:102520000237022C2E30322D2F31333132334134E9
:10253000353642373839432A3023445363616E6E4F
:10254000696E6720493243206275732E2E2E000D6E
:102550000A004C434420666F756E6420617420301D
:1025600078004C4344206E6F7420666F756E642152
:10257000004155544F0041515541002020232D3E2C
:10258000003C2D2A205F5F5F5F5F5F5F6C20232D23
:102590003E0020007C005F5F5F5F5F5F5F007461F3
:0A25A0006E6B566F6C756D653D00A3
:020000040003F7
:10E000000D9489F10D94B2F10D94B2F10D94B2F129
:10E010000D94B2F10D94B2F10D94B2F10D94B2F1F0
:10E020000D94B2F10D94B2F10D94B2F10D94B2F1E0
:10E030000D94B2F10D94B2F10D94B2F10D94B2F1D0
:10E040000D94B2F10D94B2F10D94B2F10D94B2F1C0
:10E050000D94B2F10D94B2F10D94B2F10D94B2F1B0
:10E060000D94B2F10D94B2F10D94B2F10D94B2F1A0
:10E070000D94B2F10D94B2F10D94B2F10D94B2F190
:10E080000D94B2F10D94B2F10D94B2F10D94B2F180
:10E090000D94B2F10D94B2F10D94B2F10D94B2F170
:10E0A0000D94B2F10D94B2F10D94B2F10D94B2F160
:10E0B0000D94B2F10D94B2F10D94B2F10D94B2F150
:10E0C0000D94B2F10D94B2F10D94B2F10D94B2F140
:10E0D0000D94B2F10D94B2F10D94B2F10D94B2F130
:10E0E0000D94B2F141546D656761323536300041AF
:10E0F000726475696E6F206578706C6F72657220DE
:10E1000073746B3530305632206279204D4C530099
:10E11000426F6F746C6F616465723E004875683F52
:10E1200000436F6D70696C6564206F6E203D200048
:10E130004350552054797065202020203D20005FF9
:10E140005F4156525F415243485F5F3D2000415658
:10E1500052204C696243205665723D20004743437C
:10E160002056657273696F6E203D20004350552024
:10E1700049442020202020203D20004C6F7720663D
:10E18000757365202020203D20004869676820665F
:10E190007573652020203D200045787420667573D6
:10E1A00065202020203D20004C6F636B2066757336
:10E1B000652020203D20004D617220203720323024
:10E1C000313300312E362E3800342E332E350056A2
:10E1D00023202020414444522020206F7020636F70
:10E1E00064652020202020696E73747275637469E1
:10E1F0006F6E2061646472202020496E74657272B3
:10E20000757074006E6F20766563746F7200726A49
:10E210006D702020006A6D70200057686174207056
:10E220006F72743A00506F7274206E6F7420737541
:10E2300070706F72746564004D7573742062652030
:10E2400061206C6574746572002000577269747483
:10E25000696E672045450052656164696E672045B7
:10E26000450045452065727220636E743D00504F35
:10E27000525400303D5A65726F2061646472003FF1
:10E280003D43505520737461747300403D454550C3
:10E29000524F4D207465737400423D426C696E6B41
:10E2A000204C454400453D44756D70204545505215
:10E2B0004F4D00463D44756D7020464C415348001B
:10E2C000483D48656C70004C3D4C69737420492F83
:10E2D0004F20506F72747300513D51756974005234
:10E2E0003D44756D702052414D00563D73686F7707
:10E2F00020696E7465727275707420566563746FF0
:10E30000727300593D506F727420626C696E6B00BD
:10E310002A0011241FBECFEFD1E2DEBFCDBF01E046
:10E320000CBF12E0A0E0B2E0EEE1FDEF03E00BBFB6
:10E3300002C007900D92A030B107D9F712E0A0E01B
:10E34000B2E001C01D92AE30B107E1F70F9460F367
:10E350000D948DFE01E20EBF0FEF0DBF11241FBE05
:10E360000D9460F30D9400F020E030E040ED57E0B4
:10E3700005C0FA013197F1F72F5F3F4F2817390792
:10E38000C0F308959C01260F311DC901A0E0B0E043
:10E390002F5F3F4FABBFFC018791882361F08093D3
:10E3A000C6008091C00086FFFCCF8091C0008064D1
:10E3B0008093C000EACF08958DE08093C6008091DD
:10E3C000C00086FFFCCF8091C00080648093C000B5
:10E3D0008AE08093C6008091C00086FFFCCF8091C8
:10E3E000C00080648093C00008950F94C2F10F9420
:10E3F000DCF10895FC019081992359F09093C600B7
:10E400008091C00086FFFCCF8091C0008064809323
:10E41000C0003196992379F70895282F982F929567
:10E420009F70892F805D8A3308F0895F8093C600D2
:10E430008091C00086FFFCCF8091C00080648093F3
:10E44000C000822F8F70982F905D9A3308F0995FEB
:10E450009093C6008091C00086FFFCCF8091C000E1
:10E4600080648093C00008959C01FB01853691056E
:10E470001CF46330710594F0C90164E670E00F94F8
:10E480002EFE605D7F4F6093C6008091C00086FFC6
:10E49000FCCF8091C00080648093C0002B30310598
:10E4A00014F43297B4F0C90164E670E00F942EFEC4
:10E4B0006AE070E00F942EFE605D7F4F6093C600AF
:10E4C0008091C00086FFFCCF8091C0008064809363
:10E4D000C000C9016AE070E00F942EFEC0968093E0
:10E4E000C6008091C00086FFFCCF8091C000806490
:10E4F0008093C00008951F93182F8EE692EE60E07F
:10E500000F94C2F11093C6008091C00086FFFCCF2B
:10E510008091C00080648093C0000F94DCF11F9153
:10E5200008952F923F924F925F926F927F928F92B7
:10E530009F92AF92BF92CF92DF92EF92FF920F9392
:10E540001F93DF93CF93CDB7DEB762970FB6F894E2
:10E55000DEBF0FBECDBF382E622ECA01DB015C01CB
:10E560006D01772420E2222E2E010894411C511CBB
:10E570008BC081E0A81680E0B80681E0C80680E084
:10E58000D80628F0C601AA27BB270F940DF2BB2797
:10E59000AD2D9C2D8B2D0F940DF28A2D0F940DF225
:10E5A0002092C6008091C00086FFFCCF8091C00001
:10E5B00080648093C0009DE29093C6008091C0006B
:10E5C00086FFFCCF8091C00080648093C0002092C1
:10E5D000C6008091C00086FFFCCF8091C00080649F
:10E5E0008093C00019828601750188249924A1E0D6
:10E5F0003A1651F03A1620F0B2E03B1661F409C029
:10E600000BBFF701779007C0C7010F9477FE782EF4
:10E6100002C0F7017080872D0F940DF22092C60082
:10E620008091C00086FFFCCF8091C0008064809301
:10E63000C000872D8052F401EF70F0708F3520F408
:10E64000E40DF51D708204C0E40DF51D8EE280839B
:10E650000894E11CF11C011D111D0894811C911CE2
:10E6600090E18916910409F0C2CF80E190E0A0E02A
:10E67000B0E0A80EB91ECA1EDB1E198AC2010F9493
:10E68000FAF10F94DCF16A94662009F072CF629679
:10E690000FB6F894DEBF0FBECDBFCF91DF911F91B3
:10E6A0000F91FF90EF90DF90CF90BF90AF909F9031
:10E6B0008F907F906F905F904F903F902F90089534
:10E6C0002F923F924F925F926F927F928F929F9282
:10E6D000AF92BF92CF92DF92EF92FF920F931F9370
:10E6E000DF93CF93CDB7DEB7CD53D1400FB6F894BB
:10E6F000DEBF0FBECDBF01E20EBF0FEF0DBF94B75F
:10E70000F894A89514BE80916000886180936000A1
:10E7100010926000789493FF05C0E0910002F091A0
:10E7200001021995279A2F9A8091C00082608093E8
:10E73000C00080E18093C40088E18093C1000000A4
:10E74000EE24FF24870144E0A42EB12CCC24DD2448
:10E7500024C0C5010197F1F70894E11CF11C011DCB
:10E76000111D21E2E2162EE4F20620E0020720E06D
:10E77000120718F031E0C32ED12CC801B70127ECE5
:10E780003BE140E050E00F9441FE611571058105C9
:10E79000910519F485B1805885B98091C00087FD35
:10E7A00003C0C114D104A9F2A6014F5F5F4FC25E3E
:10E7B000DE4F59834883CE51D140C25EDE4F8881FF
:10E7C0009981CE51D140019711F00D9410FEC05D9A
:10E7D000DE4F19821882C053D14060E0C15DDE4F28
:10E7E0001882CF52D14088249924C35DDE4F19820C
:10E7F0001882CD52D140C05EDE4F188219821A8233
:10E800001B82C052D140CE5CDE4F188219821A8220
:10E810001B82C253D140EE24FF2487010BBFF701B6
:10E8200007911691C45CDE4F19830883CC53D14005
:10E830000D940BFEC25EDE4F28813981CE51D1404E
:10E840002130310509F52091C600C25EDE4F1982E4
:10E850001882CE51D14022C02F5F3F4F4F4F5F4FA4
:10E86000213082E138078AE7480780E0580780F0C6
:10E87000C45CDE4FE881F981CC53D140EF5FFF4F9C
:10E8800019F0EE27FF27099420E030E040E050E047
:10E890008091C00087FFE0CF2091C600C35DDE4FAE
:10E8A00048815981CD52D1404F5F5F4FC35DDE4FEC
:10E8B00059834883CD52D140213209F063C64A3092
:10E8C000510508F05FC60894811C911C53E0851621
:10E8D000910409F059C600E010E018C081E280936D
:10E8E000C6008091C00086FFFCCF8091C00080648C
:10E8F0008093C0002F5F3F4F2931310579F70F9486
:10E90000DCF10F5F1F4F0530110519F020E030E0FA
:10E91000E5CF10920A0210920B0210920C02109294
:10E920000D02109206021092070210920802109235
:10E930000902109202021092030210920402109235
:10E9400005028FEE90EE60E00F94F5F180E191EE1C
:10E9500060E00F94C2F18091C00087FFFCCF9091DE
:10E96000C600903608F09F759032B8F09093C600BC
:10E970008091C00086FFFCCF8091C00080648093AE
:10E98000C000A0E2A093C6008091C00086FFFCCF2B
:10E990008091C00080648093C000983409F4D7C18E
:10E9A0009934B8F4923409F459C1933458F490333B
:10E9B00019F1903308F4E3C59F33A1F1903409F0C5
:10E9C000DEC5BDC0953409F470C1963409F0D7C5D1
:10E9D00098C1923509F42BC2933538F49C3409F46C
:10E9E000F5C1913509F0CBC518C2963509F445C279
:10E9F000993509F0C4C567C483E792EE62E00F94CD
:10EA0000F5F110920602109207021092080210927D
:10EA1000090210920A0210920B0210920C0210923C
:10EA20000D0213C18FE792EE62E00F94F5F18FEEC5
:10EA300090EE60E00F94F5F181E291EE60E00F94CA
:10EA4000C2F187EB91EE60E00F94F5F180E391EE77
:10EA500060E00F94C2F184EE90EE60E00F94F5F167
:10EA60008FE391EE60E00F94C2F186E090E061E008
:10EA700070E00F9434F20F94DCF18DE591EE60E0DC
:10EA80000F94C2F189EC91EE60E00F94F5F18EE401
:10EA900091EE60E00F94C2F183EC91EE60E00F9490
:10EAA000F5F18CE691EE60E00F94C2F18EE10F94E7
:10EAB0000DF288E90F940DF281E00F940DF20F949E
:10EAC000DCF18BE791EE60E00F94C2F119E0E0E039
:10EAD000F0E010935700E4918E2F0F940DF20F94F5
:10EAE000DCF18AE891EE60E00F94C2F1E3E0F0E03F
:10EAF00010935700E4918E2F0F940DF20F94DCF1D8
:10EB000089E991EE60E00F94C2F1E2E0F0E0109349
:10EB10005700E4918E2F0F940DF20F94DCF188EAE8
:10EB200091EE60E00F94C2F1E1E0F0E01093570045
:10EB30001491812F0F940DF20F94DCF107CF8BE825
:10EB400092EE62E00F94F5F18BE492EE60E00F94A8
:10EB5000F5F10F94DCF100E010E019C0C8016F2D51
:10EB60000F947FFEFF2031F489E492EE60E00F9471
:10EB7000C2F10BC0F092C6008091C00086FFFCCFAE
:10EB80008091C00080648093C0000F5F1F4FC80158
:10EB900081519F41A0E0B0E0ABBFFC01F790BAE229
:10EBA000FB1621F0E2E000301E07C1F60F94DCF105
:10EBB0000F94DCF187E592EE60E00F94F5F10F948D
:10EBC000DCF1CC24DD2400E010E01EC0C8010F946D
:10EBD00077FEF82E882331F489E492EE60E00F94FA
:10EBE000C2F10BC08093C6008091C00086FFFCCFAD
:10EBF0008091C00080648093C000FE1419F00894D6
:10EC0000C11CD11C0F5F1F4FC80181519F41A0E063
:10EC1000B0E0ABBFFC01E790FAE2EF1621F022E092
:10EC20000030120799F60F94DCF10F94DCF182E6C4
:10EC300092EE60E00F94C2F1C60161E070E00F94C3
:10EC400034F20F94DCF10F94DCF110920202109276
:10EC50000302109204021092050278CE89E992EE26
:10EC600062E00F94F5F1279A2F9A16C02F9880E052
:10EC700090E0E0EDF7E03197F1F7019684369105E9
:10EC8000C1F72F9A80E090E0E0EDF7E03197F1F7DF
:10EC9000019684369105C1F78091C00087FFE6CFC9
:10ECA0008091C00087FFFCCF64C485EA92EE62E0E9
:10ECB0000F94F5F140910202509103026091040219
:10ECC0007091050281E020E10F9491F2809102029F
:10ECD00090910302A0910402B091050280509F4FD1
:10ECE000AF4FBF4F8093020290930302A0930402A0
:10ECF000B093050280509041A040B04008F426CE69
:10ED0000A4CF83EB92EE62E00F94F5F140910602FE
:10ED100050910702609108027091090280E020E1A1
:10ED20000F9491F28091060290910702A09108023F
:10ED3000B091090280509F4FAF4FBF4F80930602A2
:10ED400090930702A0930802B0930902FFCD80ECD4
:10ED500092EE62E00F94F5F183E792EE60E00F949B
:10ED6000F5F18FE792EE60E00F94F5F18BE892EE0B
:10ED700060E00F94F5F189E992EE60E00F94F5F10F
:10ED800085EA92EE60E00F94F5F183EB92EE60E09D
:10ED90000F94F5F180EC92EE60E00F94F5F187ECC2
:10EDA00092EE60E00F94F5F188ED92EE60E00F9442
:10EDB000F5F18FED92EE60E00F94F5F18AEE92EEB0
:10EDC00060E00F94F5F183E093EEBDCD87EC92EE19
:10EDD00062E00F94F5F181E40F947BF282E40F94EA
:10EDE0007BF283E40F947BF284E40F947BF285E45E
:10EDF0000F947BF286E40F947BF287E40F947BF20E
:10EE000088E40F947BF28AE40F947BF28BE40F94F6
:10EE10007BF28CE40F947BF299CD88ED92EE62E068
:10EE20000F94F5F1772473948824992409C48FED05
:10EE300092EE62E00F94F5F140910A0250910B02BC
:10EE400060910C0270910D0282E020E10F9491F22A
:10EE500080910A0290910B02A0910C02B0910D02D8
:10EE600080509F4FAF4FBF4F80930A0290930B0289
:10EE7000A0930C02B0930D0269CD8AEE92EE62E08F
:10EE80000F94F5F184EE90EE60E00F94F5F18FECC5
:10EE900091EE60E00F94F5F1662477244301CC5D98
:10EEA000DE4F19821882C452D140D401C301B695F5
:10EEB000A79597958795CA5DDE4F88839983AA8326
:10EEC000BB83C652D140CC5DDE4FA881B981C4520C
:10EED000D1401196CC5DDE4FB983A883C452D14096
:10EEE000CD0162E070E00F9434F2B0E2B093C6005E
:10EEF0008091C00086FFFCCF8091C0008064809329
:10EF0000C000EDE2E093C6008091C00086FFFCCF18
:10EF10008091C00080648093C000F0E2F093C6004E
:10EF20008091C00086FFFCCF8091C00080648093F8
:10EF3000C000CA5DDE4FE880F9800A811B81C6529D
:10EF4000D140BB27A12F902F8F2D0F940DF2CA5DBA
:10EF5000DE4F8881C652D1400F940DF2B0E2FB2EF5
:10EF6000F092C6008091C00086FFFCCF8091C00067
:10EF700080648093C0000DE30093C6008091C000C0
:10EF800086FFFCCF8091C00080648093C00010E2B7
:10EF90001093C6008091C00086FFFCCF8091C00016
:10EFA00080648093C0008BBEF3012791C65DDE4F65
:10EFB0002883CA52D140A22EBB24CC24DD2408943D
:10EFC000611C711C811C911C8BBEF3018791282E42
:10EFD0003324442455240894611C711C811C911C09
:10EFE0008BBEF3013791C55DDE4F3883CB52D140E4
:10EFF0000894611C711C811C911C8BBEF30147910C
:10F00000C45DDE4F4883CC52D140ADEFEA2EAFEF66
:10F01000FA2EAFEF0A2FAFEF1A2F6E0C7F1C801E57
:10F02000911E142D032DF22CEE24EA0CFB1C0C1D5A
:10F030001D1D0F940DF220E22093C6008091C000A8
:10F0400086FFFCCF8091C00080648093C000C65DC5
:10F05000DE4F8881CA52D1400F940DF230E23093D6
:10F06000C6008091C00086FFFCCF8091C000806404
:10F070008093C000C45DDE4F8881CC52D1400F9494
:10F080000DF240E24093C6008091C00086FFFCCFA5
:10F090008091C00080648093C000C55DDE4F888190
:10F0A000CB52D1400F940DF250E25093C6008091A4
:10F0B000C00086FFFCCF8091C00080648093C000B8
:10F0C0008FEFE8168FEFF80680E0080780E018075A
:10F0D00031F484E092EE60E00F94C2F1DFC0D80119
:10F0E000C7018070907CA070B0708050904CA040A0
:10F0F000B040D1F52FEF3FE340E050E0E222F322B1
:10F1000004231523CA5DDE4FA880B980CA80DB8046
:10F11000C652D140AE0CBF1CC01ED11EAA0CBB1CD7
:10F12000CC1CDD1C8EE092EE60E00F94C2F1BB2798
:10F13000A12F902F8F2D0F940DF28E2D0F940DF285
:10F1400030E23093C6008091C00086FFFCCF8091F2
:10F15000C00080648093C0004EE34093C60080915D
:10F16000C00086FFFCCF87C08EE09EEFA0E0B0E03D
:10F17000E822F9220A231B239CE0E91694E9F90608
:10F1800090E0090790E0190709F088C0C45DDE4FE0
:10F19000A881CC52D140EA2EFF2400E010E0102FCD
:10F1A0000F2DFE2CEE24C55DDE4FB881CB52D14031
:10F1B000EB0EF11C011D111DD601C501817090706F
:10F1C000A070B070DC0199278827E80EF91E0A1F8D
:10F1D0001B1F20EF30E040E050E0A222B322C42207
:10F1E000D52241E1AA0CBB1CCC1CDD1C4A95D1F7F1
:10F1F000EA0CFB1C0C1D1D1D81E090E0A0E0B0E0BE
:10F20000282239224A225B2235E1220C331C441C7D
:10F21000551C3A95D1F7E20CF31C041D151D57013E
:10F220006801AA0CBB1CCC1CDD1C85E192EE60E0E1
:10F230000F94C2F1C801AA27BB270F940DF2BB2778
:10F24000A12F902F8F2D0F940DF28E2D0F940DF274
:10F2500090E29093C6008091C00086FFFCCF809121
:10F26000C00080648093C000AEE3A093C60080918C
:10F27000C00086FFFCCF8091C00080648093C000F6
:10F28000C601AA27BB270F940DF2BB27AD2D9C2DDD
:10F290008B2D0F940DF28A2D0F940DF20F94DCF14B
:10F2A000CC5DDE4FE881F981C452D140F99709F471
:10F2B0004DCBF4E0EF2EF12C012D112D6E0C7F1CA7
:10F2C000801E911EF2CD83E093EE62E00F94F5F183
:10F2D0008AE192EE60E00F94C2F18091C00087FF56
:10F2E000FCCF1091C6001F751093C6008091C0001E
:10F2F00086FFFCCF8091C00080648093C0000F9493
:10F30000DCF1812F81548A3108F036C1163409F4BA
:10F3100095C0173490F4133409F44EC0143430F40B
:10F320001134F1F0123409F01DC130C0143409F465
:10F3300059C0153409F016C16BC01A3409F4C4C0A1
:10F340001B3438F4173409F48FC0183409F00AC19B
:10F35000A1C01B3409F4D2C01C3409F003C1E8C0B9
:10F360008FEF81B90DC082B1809582B980E090E0C5
:10F37000E0EDF7E03197F1F70196883C9105C1F790
:10F380008091C00087FFEFCF12B8EFC08FEF84B934
:10F390000DC085B1809585B980E090E0E0EDF7E0A3
:10F3A0003197F1F70196883C9105C1F78091C00033
:10F3B00087FFEFCF15B8D9C08FEF87B90DC088B1DF
:10F3C000809588B980E090E0E0EDF7E03197F1F7C3
:10F3D0000196883C9105C1F78091C00087FFEFCF6F
:10F3E00018B8C3C08FEF8AB90DC08BB180958BB9A7
:10F3F00080E090E0E0EDF7E03197F1F70196883C8E
:10F400009105C1F78091C00087FFEFCF1BB8ADC059
:10F410008FEF8DB90DC08EB180958EB980E090E0F0
:10F42000E0EDF7E03197F1F70196883C9105C1F7DF
:10F430008091C00087FFEFCF1EB897C08FEF80BBD1
:10F440000DC081B3809581BB80E090E0E0EDF7E0F6
:10F450003197F1F70196883C9105C1F78091C00082
:10F4600087FFEFCF11BA81C08FEF83BB0DC084B38C
:10F47000809584BB80E090E0E0EDF7E03197F1F714
:10F480000196883C9105C1F78091C00087FFEFCFBE
:10F4900014BA6BC08FEF809301010FC080910201FD
:10F4A00080958093020180E090E0E0EDF7E03197F5
:10F4B000F1F70196883C9105C1F78091C00087FF64
:10F4C000EDCF1092020151C08FEF809304010FC065
:10F4D0008091050180958093050180E090E0E0ED4A
:10F4E000F7E03197F1F70196883C9105C1F78091DB
:10F4F000C00087FFEDCF1092050137C08FEF8093DA
:10F5000007010FC08091080180958093080180E079
:10F5100090E0E0EDF7E03197F1F70196883C910536
:10F52000C1F78091C00087FFEDCF109208011DC088
:10F530008FEF80930A010FC080910B01809580931B
:10F540000B0180E090E0E0EDF7E03197F1F70196F4
:10F55000883C9105C1F78091C00087FFEDCF1092E4
:10F560000B0103C085E292EEEEC98091C00087FFD7
:10F57000FCCF8091C600EAC988E392EEE4C98CE131
:10F5800091EEE1C988249924933011F1943028F444
:10F59000913089F09230B8F408C0953061F195301F
:10F5A000F0F0963009F048C043C02B3109F042C951
:10F5B00091E06BE13FC96227C15DDE4F2883CF52E6
:10F5C000D14092E037C9B22FA0E0622793E032C960
:10F5D000822F90E0A82BB92B622794E02BC92E3004
:10F5E00009F039C3622795E0C05DDE4F19821882A9
:10F5F000C053D1401FC9E1E0F0E0EC0FFD1FC05D3A
:10F60000DE4F08811981C053D140E00FF11F2083E4
:10F610000F5F1F4FC05DDE4F19830883C053D14079
:10F6200062270A171B0709F005C9D80196E002C92D
:10F63000261709F010C303C0973009F0FBC87724E0
:10F640009981933109F412C19431C8F4963009F4C8
:10F65000D8C0973050F4923009F406C1933009F4C1
:10F660006DC0913009F059C253C0913109F477C08F
:10F67000923108F0BBC0903109F04FC2F5C098310B
:10F6800009F487C0993150F4953109F4EFC09531F0
:10F6900008F4C6C1963109F040C2C2C19A3109F4DA
:10F6A0006CC09A3108F491C09B3109F45BC09D3164
:10F6B00009F033C29D81903359F48F81882311F46E
:10F6C0009EE11CC0813011F091E018C098E916C08D
:10F6D000892F807591F0903539F4E0E0F0E089E011
:10F6E0008093570094910AC0983539F4E3E0F0E034
:10F6F00089E080935700949101C090E01A821B82A8
:10F700008D818C831D829E831F8227E030E009C299
:10F710001A8288E08B8381E48C8386E58D8382E581
:10F720008E8389E48F8383E5888780E589878FE5E9
:10F730008A8782E38B872BE030E0F3C18A818139AD
:10F7400041F0823941F0803911F48FE005C080E04A
:10F7500003C082E001C08AE01A828B8344C0772410
:10F76000739482C08D81882311F48EE12CC0813086
:10F7700011F081E028C088E926C01A82E1E0F0E0BB
:10F7800089E08093570084918B831C8224E030E0D1
:10F79000C8C18B81803589F48C81883039F4E2E0EE
:10F7A000F0E089E08093570084910DC0E0E0F0E044
:10F7B00089E080935700849106C0E3E0F0E089E09F
:10F7C0008093570084911A82DFCF8D81836C99E0FA
:10F7D000E1E0F0E0082E90935700E89507B600FCB2
:10F7E000FDCF1A821B8223E030E09BC180EC8A832C
:10F7F000CE5CDE4F188219821A821B82C253D1401E
:10F800008EC18A8190E0A0E0B0E0582F44273327D2
:10F8100022278B8190E0A0E0B0E0DC0199278827C7
:10F82000282B392B4A2B5B2B8D8190E0A0E0B0E098
:10F83000282B392B4A2B5B2B8C8190E0A0E0B0E089
:10F84000BA2FA92F982F8827282B392B4A2B5B2BCF
:10F85000220F331F441F551FC05EDE4F288339839C
:10F860004A835B83C052D1401A8259C13A81C95C34
:10F87000DE4F3883C753D140CA5CDE4F1882C6536F
:10F88000D1408B81C82EDD24CA5CDE4F488159816E
:10F89000C653D140C42AD52A933109F082C0CE5C28
:10F8A000DE4F88819981AA81BB81C253D1408050AB
:10F8B000904CA340B04030F583E0CE5CDE4FE88052
:10F8C000F9800A811B81C253D140F70100935B008C
:10F8D00080935700E89507B600FCFDCFCE5CDE4F65
:10F8E000088119812A813B81C253D14000501F4FAA
:10F8F0002F4F3F4FCE5CDE4F088319832A833B8313
:10F90000C253D140C05EDE4F488159816A817B81FC
:10F91000C052D140DE011B9631E08C9111962C91A2
:10F9200011971296C75CDE4F2883C953D140C85C3B
:10F93000DE4F1882C853D14090E0C85CDE4FE881AA
:10F94000F981C853D1408E2B9F2B0C01FA01609393
:10F950005B0030935700E89511244E5F5F4F6F4F67
:10F960007F4F0EEFE02E0FEFF02ECE0CDF1CC114F8
:10F97000D10499F685E0C05EDE4F088119812A81A5
:10F980003B81C052D140F80120935B008093570027
:10F99000E89507B600FCFDCF81E180935700E8951C
:10F9A00035C0C05EDE4F88819981AA81BB81C0527B
:10F9B000D140B695A795979587957C018601ABE0D8
:10F9C000AA2EB12CAC0EBD1E0BC0D5016D915D01F0
:10F9D000C7010F947FFE0894E11CF11C01501040F8
:10F9E0000115110591F7A60160E070E0440F551F65
:10F9F000661F771FC05EDE4FE880F9800A811B8199
:10FA0000C052D1404E0D5F1D601F711F1A82C05E33
:10FA1000DE4F488359836A837B83C052D1407FC0C5
:10FA2000FA80C55CDE4FF882CB53D140C65CDE4F16
:10FA30001882CA53D1408B81C82EDD24C65CDE4FAC
:10FA400008811981CA53D140C02AD12A1A828981DA
:10FA5000BE016D5F7F4F843121F59601C05EDE4FA0
:10FA6000E880F9800A811B81C052D1400BBFF701A9
:10FA700087919691DB018C9311969C936E5F7F4FDB
:10FA8000D801C7010296A11DB11DC05EDE4F88835B
:10FA90009983AA83BB83C052D14022503040F1F6F3
:10FAA00036C0C05EDE4F288139814A815B81C052F9
:10FAB000D1400894C108D108760100E010E0089414
:10FAC000C11CD11C0894E11CF11C011D111DE20E8A
:10FAD000F31E041F151F21BDBB27A52F942F832FB5
:10FAE00082BD2F5F3F4F4F4F5F4FF89A80B5DB01CC
:10FAF0008D93BD012E153F054007510761F7C05E8C
:10FB0000DE4F288339834A835B83C052D1409601FC
:10FB10002D5F3F4FFB01108204C080EC8A8322E0FE
:10FB200030E08BE18093C6008091C00086FFFCCF5F
:10FB30008091C00080648093C000C15DDE4FF88179
:10FB4000CF52D140F093C6008091C00086FFFCCF19
:10FB50008091C00080648093C000432F3093C60022
:10FB60008091C00086FFFCCF8091C00080648093AC
:10FB7000C000922F2093C6008091C00086FFFCCF6A
:10FB80008091C00080648093C0008EE08093C600A6
:10FB90008091C00086FFFCCF8091C000806480937C
:10FBA000C00065E1C15DDE4FE880CF52D1406E25D7
:10FBB00069276427FE01319610C090819093C6009A
:10FBC0008091C00086FFFCCF31968091C000806498
:10FBD0008093C0006927215030402115310569F715
:10FBE0006093C6008091C00086FFFCCF8091C0006A
:10FBF00080648093C00085B1805885B9772081F4F6
:10FC0000C15DDE4F0881CF52D1400F5FC15DDE4F35
:10FC10000883CF52D14090E0A0E0B0E00D941AF4F8
:10FC200027982F9880E090E020ED37E0F901319798
:10FC3000F1F7019684369105C9F700008091C00064
:10FC40008D7F8093C00081E180935700E895EE2777
:10FC5000FF270994FFCF90E00D941AF497FB092E2B
:10FC600007260AD077FD04D02ED006D000201AF443
:10FC7000709561957F4F0895F6F7909581959F4F08
:10FC80000895A1E21A2EAA1BBB1BFD010DC0AA1FDD
:10FC9000BB1FEE1FFF1FA217B307E407F50720F0F5
:10FCA000A21BB30BE40BF50B661F771F881F991F70
:10FCB0001A9469F760957095809590959B01AC01B9
:10FCC000BD01CF010895AA1BBB1B51E107C0AA1FAC
:10FCD000BB1FA617B70710F0A61BB70B881F991FED
:10FCE0005A95A9F780959095BC01CD010895F99991
:10FCF000FECF92BD81BDF89A992780B50895262F31
:10FD0000F999FECF1FBA92BD81BD20BD0FB6F89400
:0EFD1000FA9AF99A0FBE01960895F894FFCF63
:00000001FF
